:020000040800F2
:1000000000000820290300082F030008330300081C
:10001000A5030008A9030008F10300080000000080
:10002000000000000000000000000000390400088B
:100030003D040008000000004104000859040008C5
:10004000550400085504000855040008550400082C
:10005000550400085504000855040008550400081C
:10006000550400085504000855040008550400080C
:1000700055040008550400085504000855040008FC
:1000800055040008550400085504000855040008EC
:1000900055040008550400085504000855040008DC
:1000A00055040008550400085504000855040008CC
:1000B00055040008550400085504000855040008BC
:1000C00055040008550400085504000855040008AC
:1000D000550400085504000855040008550400089C
:1000E000550400085504000855040008550400088C
:1000F000550400085504000855040008550400087C
:10010000550400085504000855040008550400086B
:10011000550400085504000855040008550400085B
:10012000550400085504000855040008550400084B
:10013000550400085504000855040008550400083B
:10014000550400085504000855040008550400082B
:10015000550400085504000855040008550400081B
:10016000550400085504000855040008550400080B
:10017000550400085504000855040008000000005C
:1001800055040008550400085504000855040008EB
:1001900055040008550400085504000855040008DB
:1001A00055040008550400085504000855040008CB
:1001B00055040008550400085504000855040008BB
:1001C000550400085504000800000000550400080C
:1001D000550400085504000855040008550400089B
:1001E000550400085504000855040008550400088B
:1001F000550400085504000800B583B001F07AF8F2
:10020000384B394A1360394A1360394906E011689E
:100210001960043304329842F9D82146354B99428B
:1002200005D20A684B6801F10C048868F3E72E4B8D
:100230001A68314B9A4200D0FEE72C4B1A682F4BBC
:100240009A42F9D1274B2E4A13602E4A13602E4B47
:1002500005E00020106004329342FAD80B462B4A86
:10026000934204D2194651F8082B5B68F4E7244BFB
:100270001B6813B9234B1B6803B1FEE701F090F92B
:10028000694601A800F0C8FF214B224CE41AA410D3
:100290000025AC4214DC204B204CE41AA4100025AD
:1002A000AC4213DC0099019801F0F8F905461C4BAB
:1002B0001C4CE41AA410002C0EDC284600F07EFF33
:1002C000134B53F8253098470135E2E7124B53F8AA
:1002D000253098470135E3E7013C114B53F82430B2
:1002E0009847E8E7BABADECA000000207400002090
:1002F0006004000878040008785634123254769866
:100300007800002014010020780400088804000808
:10031000880400088804000888040008880400088D
:10032000880400088804000808B5FFF765FF00BED0
:10033000FEE71EF0040F0CBFEFF30880EFF3098017
:100340007146414A10472DE9F04182B00446884683
:10035000124B5E6B9F6B9D6A1B6B13F0020F03D0F9
:100360000E4BDB6A002B0CDB0D4800F067FFCDF86D
:1003700000803B4632462946204600F0C7FF00BEBB
:10038000FEE74BF6AB6101F03BF80028ECD04FF0F4
:100390000042024BDA6202B0BDE8F08100ED00E0FD
:1003A000D821000800BEFEE71EF0040F0CBFEFF3DB
:1003B0000880EFF309807146244A10472DE9F04187
:1003C00082B004468846084B5E6B9F6B9D6A074867
:1003D00000F034FFCDF800803B46324629462046E7
:1003E00000F094FF00BEFEE700ED00E0E821000809
:1003F0001EF0040F0CBFEFF30880EFF30980714685
:10040000134A10472DE9F04182B004468846084B54
:100410005E6B9F6B9D6A074800F010FFCDF800806F
:100420003B4632462946204600F070FF00BEFEE7FC
:1004300000ED00E0F421000800BEFEE700BEFEE78C
:1004400000BEFEE77047000047030008BD03000838
:100450000504000800BEFEE708B500F041F808BD3D
:1004600048220008000000207800002048220008F0
:10047000000000100000001078000020180100208B
:08048000000000100000001054
:1004900010B50446074B1868074BA3FB00308009D2
:1004A00000F09AF8002221464FF0FF3000F052F899
:1004B000002010BD0C000020D34D621008B5074A83
:1004C000136843F400731360032000F025F80F2035
:1004D000FFF7DEFF01F0F2F8002008BD003C02400B
:1004E000024A136801331360704700BF0C010020FB
:1004F000014B1868704700BF0C01002010B582B096
:100500000190FFF7F5FF0446FFF7F2FF001B019B88
:100510009842F9D302B010BD10B50446C31E042B97
:100520000DD8094AD36823F4E0631B041B0C240292
:1005300004F4E0641C43054B2343D36010BDA421A5
:10054000034800F071FEECE700ED00E00000FA0562
:10055000E81F000870B505460C4616460F2A20D83D
:100560000F2C23D8184BDB68C3F30223C3F1070217
:10057000042A28BF0422191D06291CD9033B012186
:1005800001FA02F2013A14409C4001FA03F3013BE4
:1005900033401C43002D10DB2401E4B20B4B5C55AF
:1005A00070BDBC210A4800F03FFED9E7BD210848D4
:1005B00000F03AFED6E70023E1E705F00F0524013D
:1005C000E4B2044B5C5570BD00ED00E000E400E0D7
:1005D000E81F000814ED00E00138B0F1807F0AD276
:1005E000064B5860F021064A82F8231000209860DC
:1005F00007221A6070470120704700BF10E000E03A
:1006000000ED00E010B50446042818BF002807D10B
:10061000042C0BD0084A136823F00403136010BDA8
:1006200040F2B311054800F0FFFDF1E7024A1368FC
:1006300043F00403136010BD10E000E0E81F000861
:100640002DE9F04782B080460F46B34BB34A904243
:1006500018BF98422BD003F50063C31A18BF0123BB
:1006600002F50062904222D00BB3AD4BC31A18BF03
:10067000012302F50062904219D0C3B1A94BC31AFD
:1006800018BF012302F50062904210D07BB1A64B47
:10069000C31A18BF012302F50062904207D033B19C
:1006A000A24B984203D0C321A14800F0BDFD3B8876
:1006B00053B37B68112B18BF012B20D9022B1ED0FE
:1006C000122B1CD09B4A934219D002F58012934200
:1006D00015D002F58012934211D0A2F5F812934280
:1006E0000DD002F58012934209D002F58012934298
:1006F00005D0032B03D0C5218D4800F095FDBB68C4
:10070000022B06D80025CAE0C421894800F08CFDE0
:10071000CFE7C621864800F087FDF3E7E9080831F6
:1007200058F8213005F0070292000F20904023EA8C
:100730000003386900FA02F2134348F82130D8F870
:1007400000304FEA450A032606FA0AF6F64333401C
:100750007A6802F0030202FA0AF21343C8F8003082
:100760007B685A1E112B18BF012A01D9122B17D1F1
:10077000FB68032B00F2B380D8F808303340FA68E6
:1007800002FA0AF21343C8F80830D8F8043023EA12
:1007900004047B68C3F30013AB401C43C8F8044057
:1007A000D8F80C301E40BB6803FA0AF31E43C8F8A1
:1007B0000C607B6813F0805F70D05F4B5A6C42F422
:1007C00080425A645B6C03F480430193019BAB0845
:1007D000991C5A4A52F8212005F003018C000F2180
:1007E000A14022EA01024D4880457FD04A49884510
:1007F0007ED001F5806188457CD001F58061884517
:100800007AD001F58061884578D001F5806188450E
:1008100076D001F58061884574D001F58061884506
:1008200072D001F58061884570D001F580618845FE
:100830005AD00A21A1400A430233404941F82320FB
:100840003F4B1A686FEA090302EA0301786810F463
:10085000803F01D049EA0201394A1160526803EA37
:100860000201786810F4003F01D049EA0201344ADD
:100870005160926803EA0201786810F4801F01D089
:1008800049EA02012E4A9160D2681340796811F456
:10089000001F01D049EA0203294AD36001350F2D18
:1008A00036D80124AC403B6804EA03094C45F5D135
:1008B0007B68122B18BF022B7FF441AF3B690F2BD3
:1008C00018BF0C2B7FF62AAF0D2B3FF427AF0E2B52
:1008D0003FF424AFD721164800F0A6FC1EE7EB2119
:1008E000134800F0A1FC47E70921A3E70021A1E795
:1008F00001219FE702219DE703219BE7042199E75E
:10090000052197E7062195E7072193E7082191E75D
:1009100002B0BDE8F08700BF0004024000000240C2
:1009200000140240001C0240002402400028024043
:100930001C2000080000111000380240003801405F
:10094000003C014070B5064615460C4651B1012DDC
:1009500004D94FF4D771074800F066FC45B9240468
:10096000B46170BD40F2AD11024800F05DFCEEE7ED
:10097000B46170BD1C20000810B582B01B4B1A6C0E
:1009800042F080521A641B6C03F080530193019B68
:10099000174A136843F480331360FFF7A9FD044638
:1009A000134B5B6813F4803F08D1FFF7A1FD001BD8
:1009B000B0F57A7FF4D9032002B010BD0C4A136859
:1009C00043F400331360FFF793FD0446084B5B6864
:1009D00013F4003F07D1FFF78BFD001BB0F57A7FC2
:1009E000F4D90320E8E70020E6E700BF0038024022
:1009F0000070004030B583B0044603680F2B3ED82A
:100A0000236813F0010F4ED06368002B18BFB3F5B5
:100A1000803F07D0B3F5A02F04D04FF48771A648CC
:100A200000F002FCA54B9B6803F00C03042B31D0B3
:100A3000A24B9B6803F00C03082B26D06368B3F528
:100A4000803F62D0002B66D19C4B1A6822F4803222
:100A50001A601A6822F480221A606368002B71D031
:100A6000FFF746FD0546954B1B6813F4003F1AD16E
:100A7000FFF73EFD401B6428F5D9032025E24FF423
:100A800084718D4800F0D0FBBAE78C4B5B6813F49F
:100A9000800FD3D0894B1B6813F4003F03D06368E9
:100AA000002B00F00F82236813F0020F7CD0E36864
:100AB000012B04D94FF4A0717F4800F0B5FB2369E6
:100AC0001F2B4ED87D4B9B6813F00C0F54D07B4BE3
:100AD0009B6803F00C03082B49D0E368002B00F05F
:100AE0009580764A136843F001031360FFF700FD19
:100AF0000546724B1B6813F0020F78D1FFF7F8FC24
:100B0000401B0228F5D90320DFE16C4A136843F447
:100B100080331360A1E7B3F5A02F09D0674B1A68A3
:100B200022F480321A601A6822F480221A6094E754
:100B3000624B1A6842F480221A601A6842F48032CA
:100B40001A608AE7FFF7D4FC05465C4B1B6813F478
:100B5000003FA8D0FFF7CCFC401B6428F5D9032048
:100B6000B3E140F24111544800F05EFBAAE7534B59
:100B70005B6813F4800FB0D1504B1B6813F0020F69
:100B800004D0E368012B01D001209EE14B480368AB
:100B900023F0F8032169F82292FAA2F2B2FA82F263
:100BA00001FA02F213430360236813F0080F55D0D3
:100BB0006369012B04D940F281113F4800F034FBF6
:100BC0006369002B36D03D4A536F43F001035367EE
:100BD000FFF78EFC0546394B5B6F13F0020F3DD1DA
:100BE000FFF786FC401B0228F5D903206DE133484E
:100BF000036823F0F8032169F82292FAA2F2B2FA0C
:100C000082F201FA02F213430360CDE72B4A136824
:100C100023F001031360FFF76BFC0546274B1B68AD
:100C200013F0020FC0D0FFF763FC401B0228F5D978
:100C300003204AE1214A536F23F001035367FFF772
:100C400057FC05461D4B5B6F13F0020F06D0FFF7F4
:100C50004FFC401B0228F5D9032036E1236813F02E
:100C6000040F7CD0A368052B18BF012B1DD8134B94
:100C70001A6C42F080521A641B6C03F0805301938B
:100C8000019B0F4A136843F480731360FFF730FC35
:100C900005460B4B1B6813F4807F13D1FFF728FC2C
:100CA000401B6428F5D903200FE140F2AB11024844
:100CB00000F0BAFADBE700BF4C2000080038024021
:100CC00000700040A368012B1CD00BBB814B1A6F36
:100CD00022F001021A671A6F22F004021A67A36851
:100CE00063B3FFF705FC05467A4B1B6F13F0020F49
:100CF00035D1FFF7FDFB401B41F288339842F3D911
:100D00000320E2E0734A136F43F001031367E6E741
:100D1000052B09D06F4B1A6F22F001021A671A6F68
:100D200022F004021A67DAE76A4B1A6F42F00402F3
:100D30001A671A6F42F001021A67D0E7FFF7D8FB73
:100D40000546644B1B6F13F0020F08D0FFF7D0FB72
:100D5000401B41F288339842F3D90320B5E0A369E0
:100D6000022B21D8A369002B00F0AE80594A92686B
:100D700002F00C02082A00F0AA80022B1AD0554A71
:100D8000136823F080731360FFF7B2FB0446514BE6
:100D90001B6813F0007F00F09380FFF7A9FB001B96
:100DA0000228F4D9032090E04FF4F0714A4800F093
:100DB0003BFAD7E7E369002B18BFB3F5800F2ED1BC
:100DC000236A023B3D2B30D8636A323BB3F5BF7FC9
:100DD00031D8A36A022B18BF042B08D0062B06D0EB
:100DE000082B04D04FF4F6713B4800F01DFAE36A7B
:100DF000023B0D2B25D8374A136823F0807313600C
:100E0000FFF776FB0546334B1B6813F0007F1ED0BF
:100E1000FFF76EFB401B0228F5D9032055E040F296
:100E2000E9112D4800F000FACAE74FF4F5712A489D
:100E300000F0FAF9C8E740F2EB11274800F0F4F9A6
:100E4000C7E740F2ED11244800F0EEF9D3E7E3697B
:100E5000226A1343616A47F6C07292FAA2F2B2FAAA
:100E600082F201FA02F21343A26A5208013A4FF4E5
:100E7000403191FAA1F1B1FA81F18A401343E16A5C
:100E80004FF0706292FAA2F2B2FA82F201FA02F222
:100E90001343104A5360136843F080731360FFF7E5
:100EA00027FB04460B4B1B6813F0007F06D1FFF7AE
:100EB0001FFB001B0228F5D9032006E0002004E0F8
:100EC000002002E0012000E0002003B030BD01203E
:100ED000FBE700BF003802404C200008214B9B6814
:100EE00003F00C03042B3AD0082B01D01E487047A6
:100EF0001C4B586800F03F005B6813F4800F1ED055
:100F00001A4AB2FBF0F2174B586847F6C073184004
:100F100093FAA3F3B3FA83F3D84000FB02F0114B2A
:100F20005B6803F440334FF4403292FAA2F2B2FA13
:100F300082F2D34001335B00B0FBF3F070470A4A02
:100F4000B2FBF0F2074B586847F6C073184093FAAB
:100F5000A3F3B3FA83F3D84000FB02F0DFE70348C2
:100F6000704700BF003802400024F40040787D0143
:100F700070B504460D460368013B0E2B14D80F2DA7
:100F800018D8864B1B6803F00F039D4218D9834A7B
:100F9000136823F00F032B431360136803F00F0350
:100FA0009D420DD0012070BD4FF413717C4800F0BC
:100FB0003BF9E4E740F24D21794800F035F9E0E7EC
:100FC000236813F0020F1ED0A368002B18BF802BDC
:100FD00012D0902B10D0A02B0ED0B02B0CD0C02B49
:100FE0000AD0D02B08D0E02B06D0F02B04D04FF441
:100FF00019716B4800F018F96A4A936823F0F003FE
:10100000A1680B439360236813F0010F5BD0636802
:10101000022B26D86368012B29D0022B2ED0614ADF
:10102000126812F0020F00F0B6805E498A6822F062
:10103000030213438B60FFF75BFA06466368012BDC
:1010400023D0022B30D0574B9B6813F00C0F3AD0B3
:10105000FFF74EFA801B41F288339842F3D9032000
:1010600070BD40F26B214E4800F0DEF8D2E74D4AE9
:10107000126812F4003FD8D1012070BD494A1268AD
:1010800012F0007FD1D1012070BD464B9B6803F068
:101090000C03042B17D0FFF72BFA801B41F2883387
:1010A0009842F2D9032070BD3E4B9B6803F00C03BD
:1010B000082B08D0FFF71CFA801B41F288339842B6
:1010C000F2D9032070BD354B1B6803F00F039D421E
:1010D0000CD2324A136823F00F032B4313601368BA
:1010E00003F00F039D4201D0012070BD236813F06F
:1010F000040F1AD0E368002B18BFB3F5805F0DD042
:10110000B3F5A05F0AD0B3F5C05F07D0B3F5E05FD9
:1011100004D040F2BE21224800F086F8214A9368AC
:1011200023F4E053E1680B439360236813F0080F46
:101130001BD02369002B18BFB3F5805F0DD0B3F52A
:10114000A05F0AD0B3F5C05F07D0B3F5E05F04D06D
:1011500040F2C521124800F067F8124A936823F460
:101160006043216943EAC1039360FFF7B7FE0D4B6B
:101170009B6803F0F003F02292FAA2F2B2FA82F234
:10118000D340094AD35CD840084B18600F20FFF7C2
:101190007FF9002070BD012070BD00BF003C0240FF
:1011A0004C20000800380240042200080C000020F7
:1011B000014B1868704700BF0C000020FEE70000DC
:1011C00008B5034800F052F80120FFF7F7FF00BF11
:1011D0007C20000808B503460C4A12685AB10B4A35
:1011E0001068033323F003030344094A934206D8EB
:1011F000064A136008BD0749044A1160EFE700F092
:101200005FFA0C2303604FF0FF3008BD7C00002024
:1012100000FC07201801002001230360014B0B6034
:10122000704700BF0400002008B50A460146024886
:1012300000F004F8FFF7C4FF902000080FB400B5D9
:1012400083B004AB53F8042B01938021064800F0CF
:1012500071FA002803DD0146034800F047F803B0A7
:101260005DF804EB04B070478400002010B504461C
:1012700000F02CFA0146204600F038F8012102481F
:1012800000F034F810BD00BF542100082DE9F043F0
:1012900085B004460F4643560BB10E461EE00425AA
:1012A00028462146ABBE0446384605B0BDE8F0836B
:1012B00014F9011B04AA1A4402F8101C0133AB42B2
:1012C000F6D304AA1344002203F8102CE9464FF089
:1012D000040840464946ABBE8046761B002EE3D04C
:1012E0003546102E28BF10250023E8E708B5FFF784
:1012F000CDFF08BD08B500F093F8024B024A9A6092
:1013000008BD00BF00ED00E000000008F8B504468D
:101310000D4617461E462748FFF790FF21682648CE
:10132000FFF78CFF61682548FFF788FFA168244814
:10133000FFF784FFE1682348FFF780FF2169224817
:10134000FFF77CFF61692148FFF778FFA16920481A
:10135000FFF774FFE1691F48FFF770FF1E48FFF7B2
:101360006DFF29461D48FFF769FF1D4CE16A1D48C6
:10137000FFF764FF216B1C48FFF760FFE16B1B4820
:10138000FFF75CFF15F0800F0AD115F4004F0CD168
:101390001748FFF753FF06991648FFF74FFFF8BDB0
:1013A00039461548FFF74AFFEFE731461348FFF784
:1013B00045FFEDE7BC200008CC200008DC20000839
:1013C000EC200008FC2000080C2100081C2100086B
:1013D0002C2100083C2100084C210008582100085D
:1013E00000ED00E06821000878210008882100084D
:1013F000B8210008C021000898210008A821000891
:1014000083691A888A4201D0002070470268033A33
:10141000012A03D8023383610120704700207047FE
:101420000B4B1A6842F001021A600021996018689B
:10143000084A02401A60084A5A601A6822F4802258
:101440001A60D9604FF00062044B9A60704700BF89
:1014500000380240FFFFF6FE1030002400ED00E0EF
:10146000224B9B6803F00C03042B14D0082B16D0DE
:101470001BB11F4A1F4B1A6002E01D4A1D4B1A6028
:101480001A4B9B68C3F303131B4AD15C194A1368B8
:10149000CB4013607047194A164B1A60F0E7134BA4
:1014A0005A685B6803F03F0312F4800F13D0134AAD
:1014B000B2FBF3F20D4B5B68C3F3881303FB02F33B
:1014C0000A4A5268C2F3014201325200B3FBF2F3FE
:1014D000084A1360D4E7064AB2FBF3F2034B5B6899
:1014E000C3F3881303FB02F3EAE700BF00380240AE
:1014F0000024F4000C0000200422000840787D0144
:1015000010B594B0234B1A6C42F080521A641B6CD5
:1015100003F080530093009B1F4B1A6842F4404233
:101520001A601B6803F440430193019B0123079356
:101530004FF4803308934FF480030E9319230F93D5
:101540004FF4C073109302241194082312930D9446
:1015500007A8FFF74FFAFFF70FFA0F230293039440
:10156000002304934FF4A05305934FF48053069344
:10157000062102A8FFF7FCFCFFF71AFE074BA3FBAE
:1015800000308009FFF728F80420FFF73BF814B07B
:1015900010BD00BF0038024000700040D34D621003
:1015A00010B5BFF34F8FBFF36F8F1C4B0021C3F8F3
:1015B00050125A6942F400325A61BFF34F8FBFF3A1
:1015C0006F8FC3F88410BFF34F8FD3F88040C4F3FC
:1015D0004E300FE01A4643F6E07303EA401343EA45
:1015E00082730E49C1F86032531E002AF2D1431EA5
:1015F00018B11846C4F3C902EDE7BFF34F8F4B692A
:1016000043F480334B61BFF34F8FBFF36F8FFEF70F
:1016100055FFFFF775FFFFF723FF10BD00ED00E05A
:1016200000B587B00B4B1A6B42F002021A631B6BBA
:1016300003F002030093009B2323019301230293F1
:1016400003930323049301A90348FEF7F9FF07B0AE
:101650005DF804FB003802400004024010B5064C5F
:10166000002201212046FFF76DF9002202212046C9
:10167000FFF768F910BD00BF0004024010B5064C2A
:10168000012211462046FFF75DF901220221204682
:10169000FFF758F910BD00BF0004024008B5FFF77E
:1016A000BFFFFFF7DBFF4FF47A70FEF727FFFFF76E
:1016B000E5FF4FF47A70FEF721FFF2E77047000074
:1016C000014B1868704700BF10000020034613F854
:1016D000012B002AFBD1181A0138704730B5141EAF
:1016E00005469BB0184605DA8B232B604FF0FF3080
:1016F0001BB030BD4FF40273ADF80C3014BF04F1D1
:10170000FF332346029305934FF6FF730091049134
:10171000ADF80E3002461E9B6946284600F074F86C
:10172000431CBCBF8B232B60002CE1D0009B00220C
:101730001A70DDE707B5009313460A4601460348D1
:101740000068FFF7CBFF03B05DF804FB100000203A
:101750002DE9F0478E689E4282460C469146984697
:1017600035D88A8912F4906F31D0256809696F1ACB
:101770006569022305EB450595FBF3F508F10103C7
:101780003B449D4238BF1D46530531D5294600F0E4
:101790008BFB064650B90C23CAF80030A38943F0EE
:1017A0004003A3814FF0FF30BDE8F0873A4621693E
:1017B00000F006FBA38923F4906343F08003A38128
:1017C000266165613E44ED1B2660A56046464645A0
:1017D00028BF464632464946206800F0FCFAA36816
:1017E0009B1BA36023681E4426600020BDE8F08791
:1017F0002A4600F0B7FB06460028E1D12169504691
:1018000000F004FBC7E700002DE9F04F9DB08046D3
:1018100003938B891C060D4616460FD50B696BB9D1
:10182000402100F041FB2860286128B90C23C8F84A
:1018300000304FF0FF30C5E040236B610023099377
:1018400020238DF8293030238DF82A304FF0010BFA
:1018500037463C4614F8013B002B3CD1B7EB060A57
:101860000BD05346324629464046FFF771FF013000
:1018700000F0A380099B534409933B78002B00F0B0
:101880009C8000234FF0FF32049307930592069348
:101890008DF853301A9305222178504800F040FA11
:1018A000671C049BD8B9D90644BF20228DF8532069
:1018B0001A0744BF2B228DF8532022782A2A16D0EB
:1018C000079A00210A20274601343B78303B092B38
:1018D00051D9C9B111E0252BC0D02746B9E73F4AFD
:1018E000801A0BFA00F0184304903C46D3E7039AA1
:1018F000111D12680391002A01DB079204E0524295
:1019000043F00203079204933B782E2B0ED17B7891
:101910002A2B07F1010132D1039B1A1D1B68039288
:10192000002BB8BF4FF0FF33023705932C4C3978AA
:101930000322204600F0F4F938B14023001B03FADB
:1019400000F0049B034304930137397825488DF850
:10195000281006227E1C00F0E3F9002835D0224B27
:10196000FBB9039B073323F0070308330393099B59
:101970004B4409936CE700FB02320121A3E70023EB
:10198000059318460A240F4601313A78303A092A5D
:1019900003D9002BCAD00590C8E704FB002001231F
:1019A000F1E703AB00932A46104B04A94046AFF37E
:1019B0000080B0F1FF3F8146D9D1AB895B063FF58E
:1019C00038AF09981DB0BDE8F08F03AB00932A46ED
:1019D000064B04A9404600F081F8EAE7142200080B
:1019E0001A2200081E2200080000000051170008FB
:1019F0002DE9F04791461F468A680B69DDF8208083
:101A00009342B8BF1346C9F8003091F84320064608
:101A10000C4612B10133C9F800302368990642BF61
:101A2000D9F800300233C9F80030256815F00605F2
:101A300007D104F1190AE368D9F800209B1A9D42E6
:101A400029DB94F843302268003318BF0123920643
:101A50002ED404F1430239463046C047013021D02C
:101A60002368E568D9F8002003F00603042B08BFBB
:101A7000AD1AA36822690CBF25EAE57500259342DB
:101A8000C4BF9B1AED184FF000091A344D451BD105
:101A90000020BDE8F0870123524639463046C04752
:101AA000013003D14FF0FF30BDE8F0870135C2E7C8
:101AB000E1185A1C302081F84300224494F8451064
:101AC00082F843100233C4E70123224639463046E8
:101AD000C0470130E6D009F10109D7E72DE9F0430D
:101AE00017460A7E85B06E2A984606460C460C9B21
:101AF00001F1430E00F0BC801AD8632A2ED00AD818
:101B0000002A00F0C880582A00F08A8004F14205BB
:101B100084F842202AE0642A01D0692AF6D121689B
:101B20001A6811F0800F23D0111D1960136827E087
:101B3000732A00F0B48008D86F2A2AD0702AE5D121
:101B40000A6842F020020A6003E0752A21D0782A50
:101B5000DCD1782284F845206E4964E01A6801F1EE
:101B60004205111D1960136884F842300123A3E077
:101B700011F0400F02F104011960D7D0B2F9003022
:101B8000002B03DA2D225B4284F8432062490A22AB
:101B900017E02068196810F0800F03D0081D186046
:101BA0000B6806E010F0400F01F104001860F7D058
:101BB0000B8859496F2A14BF0A220822002084F892
:101BC00043006568A560002DC0F29C80206820F06D
:101BD00004002060002B3FD1002D40F09580754619
:101BE000082A0BD12368DA0708D5236962689A426C
:101BF000DEBF302305F8013C05F1FF35AEEB0503F0
:101C00002361CDF800803B4603AA21463046FFF70A
:101C1000EFFE013055D14FF0FF3005B0BDE8F08345
:101C200081F845203C492268186812F0800F00F1C5
:101C300004051D6001D0036802E05506FBD503884A
:101C4000D00744BF42F0200222601BB9226822F074
:101C5000200222601022B1E77546B3FBF2F002FBCE
:101C60001033CB5C05F8013D03460028F5D1B7E7FA
:101C700008681A68496910F0800F04D0101D1860B8
:101C80001368196007E010F0400F02F104001860BB
:101C90001368F6D01980002323617546B1E71A68EE
:101CA000111D1960156862680021284600F038F897
:101CB00008B1401B606063682361002384F84330EF
:101CC0009FE723692A4639463046C0470130A2D0F3
:101CD00023689B0707D5002504F11909E368039AD7
:101CE0009B1A9D4205DBE068039B9842B8BF1846EB
:101CF00093E701234A4639463046C04701308AD02F
:101D00000135EBE7002BA7D10B7884F8423004F1C2
:101D1000420565E736220008252200080000000081
:101D200001F0FF01102A2BDB10F0070F08D010F88C
:101D3000013B013A8B422DD010F0070F42B3F6D190
:101D4000F0B441EA012141EA014122F007047FF0A9
:101D500000070023F0E80256083C85EA010586EA00
:101D6000010685FA47F5A3FA87F586FA47F6A5FA3C
:101D700087F68EB9EED1F0BC01F0FF0102F0070248
:101D800032B110F8013B013A83EA010313B1F8D1F3
:101D90000020704701387047002D06BF35460338D4
:101DA000073815F0010F07D1013015F4807F02BF0D
:101DB000013015F4C03F0130F0BC0138704700BF5E
:101DC00010B5431E0A44914200D110BD11F8014BD9
:101DD00003F8014FF7E7884210B501EB020303D87F
:101DE000421E99420CD110BD9842F9D28118D21AE4
:101DF000D34200D110BD13F8014D01F8014DF7E7B2
:101E000011F8014B02F8014FEBE7000038B5054629
:101E1000002945D051F8043C0C1F002BB8BFE41832
:101E200000F0D6F81F4A1368104633B96360146097
:101E30002846BDE8384000F0CCB8A3420CD9216850
:101E40006218934204BF1A685B68636004BF52184B
:101E500022600460ECE713465A680AB1A242FAD93C
:101E600019685818A0420BD12068014458188242C2
:101E70001960DDD1106852685A6001441960D7E7D3
:101E800002D90C232B60D3E7206821188A4204BFB3
:101E900011685268626004BF091821605C60C7E77E
:101EA00038BD00BF0401002070B5CD1C25F003052E
:101EB00008350C2D38BF0C25002D064601DBA94244
:101EC00003D90C233360002070BD00F081F8234A51
:101ED0001468214691B9224C23681BB9304600F0A2
:101EE00067F820602946304600F062F8431C26D18E
:101EF0000C233360304600F06CF8E4E70B685B1BA2
:101F00001AD40B2B0FD90B60CD50CC18304600F0F3
:101F100060F804F10B00231D20F00700C31A1BD04A
:101F20005A42E25070BD8C420DBF63684B686360DB
:101F3000136018BF0C46E9E70C464968CAE7C41CA1
:101F400024F00304A04205D0211A304600F030F8F6
:101F50000130CDD02560D9E770BD00BF040100205D
:101F600008010020F8B5074614460E4621B911466F
:101F7000BDE8F840FFF798BF22B9FFF747FF2546B5
:101F80002846F8BD00F026F884420FD9214638468D
:101F9000FFF78AFF05460028F2D031462246FFF7B8
:101FA0000FFF31463846FFF731FFE9E73546E7E7EF
:101FB00038B5064C0023054608462360FFF70AF9AA
:101FC000431C02D1236803B12B6038BD10010020EF
:101FD0007047704751F8040C0028A0F10400BCBF02
:101FE0000B58C018704700002E2E2F73797374653C
:101FF0006D2F7372632F73746D333266372D686182
:102000006C2F73746D3332663778785F68616C5FFC
:10201000636F727465782E63000000002E2E2F739C
:10202000797374656D2F7372632F73746D333266B9
:10203000372D68616C2F73746D3332663778785F33
:1020400068616C5F6770696F2E6300002E2E2F73BE
:10205000797374656D2F7372632F73746D33326689
:10206000372D68616C2F73746D3332663778785F03
:1020700068616C5F7263632E6300000061626F725F
:102080007428292C2065786974696E672E2E2E00BD
:102090006173736572745F706172616D2829206667
:1020A00061696C65643A2066696C6520222573223B
:1020B0002C206C696E652025640A000053746163EE
:1020C0006B206672616D653A0A0000002052302074
:1020D0003D2020253038580A0000000020523120D1
:1020E0003D2020253038580A0000000020523220C0
:1020F0003D2020253038580A0000000020523320AF
:102100003D2020253038580A00000000205231328E
:10211000203D20253038580A00000000204C522075
:102120003D2020253038580A000000002050432070
:102130003D2020253038580A00000000205053521E
:10214000203D20253038580A000000004653522F09
:102150004641523A0A0000002043465352203D2097
:1021600020253038580A00002048465352203D2090
:1021700020253038580A00002044465352203D2084
:1021800020253038580A00002041465352203D2077
:1021900020253038580A0000204D4D464152203D40
:1021A00020253038580A00002042464152203D2068
:1021B00020253038580A00004D6973630A0000007A
:1021C000204C522F4558435F52455455524E3D20A6
:1021D000253038580A0000005B486172644661751A
:1021E0006C745D0A000000005B4275734661756C9B
:1021F000745D0A005B55736167654661756C745D5B
:102200000A000000000000000000000001020304BA
:1022100006070809232D302B2000686C4C006566EA
:102220006745464700303132333435363738394127
:10223000424344454600303132333435363738393D
:072240006162636465660042
:102248007856341280000020000000000024F400BA
:102258001400002000000000000000000000000042
:102268000000000000000000000000000000000066
:102278000000000000000000000000000000000056
:102288000000000000000000000000000000000046
:102298000000000000000000000000000000000036
:1022A8000000000000000000000000000000000026
:0822B80000000000325476988A
:04000005080001F9F5
:00000001FF
