:020000040800F2
:100000000000082021050008270500082B0500082E
:100010009D050008A1050008E90500080000000092
:100020000000000000000000000000003106000891
:100030003506000800000000633B0008113D000881
:100040004506000845060008450600084506000864
:100050004506000845060008450600084506000854
:100060004506000845060008450600084506000844
:100070004506000845060008450600084506000834
:100080004506000845060008450600084506000824
:100090004506000845060008450600084506000814
:1000A0004506000845060008450600084506000804
:1000B00045060008450600084506000845060008F4
:1000C00045060008450600084506000845060008E4
:1000D00045060008450600084506000845060008D4
:1000E00045060008450600084506000845060008C4
:1000F00045060008450600084506000845060008B4
:1001000045060008450600084506000845060008A3
:100110004506000845060008450600084506000893
:100120004506000845060008450600084506000883
:100130004506000845060008450600084506000873
:100140004506000845060008450600084506000863
:100150004506000845060008450600084506000853
:100160004506000845060008450600084506000843
:100170004506000845060008450600080000000086
:100180004506000845060008450600084506000823
:100190004506000845060008450600084506000813
:1001A0004506000845060008450600084506000803
:1001B00045060008450600084506000845060008F3
:1001C0004506000845060008000000004506000836
:1001D00045060008450600084506000845060008D3
:1001E00045060008450600084506000845060008C3
:1001F0004506000845060008000008202105000803
:10020000270500082B0500089D050008A10500082A
:10021000E9050008000000000000000000000000E8
:10022000000000003106000835060008000000004C
:10023000633B0008113D000845060008450600081C
:100240004506000845060008450600084506000862
:100250004506000845060008450600084506000852
:100260004506000845060008450600084506000842
:100270004506000845060008450600084506000832
:100280004506000845060008450600084506000822
:100290004506000845060008450600084506000812
:1002A0004506000845060008450600084506000802
:1002B00045060008450600084506000845060008F2
:1002C00045060008450600084506000845060008E2
:1002D00045060008450600084506000845060008D2
:1002E00045060008450600084506000845060008C2
:1002F00045060008450600084506000845060008B2
:1003000045060008450600084506000845060008A1
:100310004506000845060008450600084506000891
:100320004506000845060008450600084506000881
:100330004506000845060008450600084506000871
:100340004506000845060008450600084506000861
:100350004506000845060008450600084506000851
:100360004506000845060008450600084506000841
:100370004506000800000000450600084506000884
:100380004506000845060008450600084506000821
:100390004506000845060008450600084506000811
:1003A0004506000845060008450600084506000801
:1003B00045060008450600084506000845060008F1
:1003C0000000000045060008450600084506000834
:1003D00045060008450600084506000845060008D1
:1003E00045060008450600084506000845060008C1
:1003F00000B583B001F08EF8384B394A1360394AA2
:100400001360394906E011681960043304329842D8
:10041000F9D82146354B994205D20A684B6801F15B
:100420000C048868F3E72E4B1A68314B9A4200D0CF
:10043000FEE72C4B1A682F4B9A42F9D1274B2E4AD4
:1004400013602E4A13602E4B05E00020106004322A
:100450009342FAD80B462B4A934204D2194651F8DC
:10046000082B5B68F4E7244B1B6813B9234B1B680C
:1004700003B1FEE703F048FF694601A800F0DCFF86
:10048000214B224CE41AA4100025AC4214DC204B72
:10049000204CE41AA4100025AC4213DC009901980A
:1004A00003F0EEFF05461C4B1C4CE41AA410002C74
:1004B0000EDC284600F092FF134B53F82530984786
:1004C0000135E2E7124B53F8253098470135E3E751
:1004D000013C114B53F824309847E8E7BABADECA1A
:1004E0000000002074000020480600086006000894
:1004F000785634123254769878000020B0250020C7
:100500006006000870060008700600087006000803
:1005100070060008700600087006000870060008E3
:1005200008B5FFF765FF00BEFEE71EF0040F0CBF25
:10053000EFF30880EFF3098071463F4A10472DE939
:10054000F04182B004468846124B5E6B9F6B9D6AF9
:100550001B6B13F0020F03D00E4BDB6A002B0CDB7E
:100560000D4800F07BFFCDF800803B46324629461F
:10057000204600F0DBFF00BEFEE74BF6AB6101F06A
:100580004FF80028ECD04FF00042024BDA6202B084
:10059000BDE8F08100ED00E00850000800BEFEE775
:1005A0001EF0040F0CBFEFF30880EFF309807146D3
:1005B000224A10472DE9F04182B004468846084B94
:1005C0005E6B9F6B9D6A074800F048FFCDF8008086
:1005D0003B4632462946204600F0A8FF00BEFEE713
:1005E00000ED00E0185000081EF0040F0CBFEFF300
:1005F0000880EFF309807146114A10472DE9F04158
:1006000082B004468846084B5E6B9F6B9D6A074824
:1006100000F024FFCDF800803B46324629462046B4
:1006200000F084FF00BEFEE700ED00E0245000086B
:1006300000BEFEE700BEFEE73F050008B505000866
:08064000FD05000800BEFEE705
:100648008C51000800000020780000208C51000820
:10065800000000100000001078000020B4250020E1
:0806680000000010000000106A
:1006700010B50446074B1868074BA3FB00308009F0
:1006800000F07EF8002221464FF0FF3000F036F8EF
:10069000002010BD0C000020D34D621008B5074AA1
:1006A000136843F400731360032000F009F80F206F
:1006B000FFF7DEFF03F018FF002008BD003C0240FA
:1006C00010B50446C31E042B0DD8094AD36823F481
:1006D000E0631B041B0C240204F4E0641C43054B80
:1006E0002343D36010BDA421034800F0ADFEECE726
:1006F00000ED00E00000FA05184E000870B5054650
:100700000C4616460F2A20D80F2C23D8184BDB682E
:10071000C3F30223C3F10702042A28BF0422191DD0
:1007200006291CD9033B012101FA02F2013A1440C7
:100730009C4001FA03F3013B33401C43002D10DBC6
:100740002401E4B20B4B5C5570BDBC210A4800F09B
:100750007BFED9E7BD21084800F076FED6E70023EE
:10076000E1E705F00F052401E4B2044B5C5570BDD0
:1007700000ED00E000E400E0184E000814ED00E099
:100780000138B0F1807F0AD2064B5860F021064A4A
:1007900082F823100020986007221A607047012019
:1007A000704700BF10E000E000ED00E010B5044627
:1007B000042818BF002807D1042C0BD0084A13685E
:1007C00023F00403136010BD40F2B311054800F09C
:1007D0003BFEF1E7024A136843F00403136010BDC7
:1007E00010E000E0184E00082DE9F04782B0804686
:1007F0000F46B34BB34A904218BF98422BD003F533
:100800000063C31A18BF012302F50062904222D090
:100810000BB3AD4BC31A18BF012302F5006290421F
:1008200019D0C3B1A94BC31A18BF012302F5006246
:10083000904210D07BB1A64BC31A18BF012302F51A
:100840000062904207D033B1A24B984203D0C3213B
:10085000A14800F0F9FD3B8853B37B68112B18BF0A
:10086000012B20D9022B1ED0122B1CD09B4A934265
:1008700019D002F58012934215D002F580129342EE
:1008800011D0A2F5F81293420DD002F580129342D6
:1008900009D002F58012934205D0032B03D0C52165
:1008A0008D4800F0D1FDBB68022B06D80025CAE0B8
:1008B000C421894800F0C8FDCFE7C621864800F072
:1008C000C3FDF3E7E908083158F8213005F00702C5
:1008D00092000F20904023EA0003386900FA02F2E8
:1008E000134348F82130D8F800304FEA450A032670
:1008F00006FA0AF6F64333407A6802F0030202FA77
:100900000AF21343C8F800307B685A1E112B18BF37
:10091000012A01D9122B17D1FB68032B00F2B380F7
:10092000D8F808303340FA6802FA0AF21343C8F8DC
:100930000830D8F8043023EA04047B68C3F30013BA
:10094000AB401C43C8F80440D8F80C301E40BB68CC
:1009500003FA0AF31E43C8F80C607B6813F0805F4B
:1009600070D05F4B5A6C42F480425A645B6C03F463
:1009700080430193019BAB08991C5A4A52F82120ED
:1009800005F003018C000F21A14022EA01024D482D
:1009900080457FD04A4988457ED001F580618845F1
:1009A0007CD001F5806188457AD001F58061884569
:1009B00078D001F58061884576D001F58061884561
:1009C00074D001F58061884572D001F58061884559
:1009D00070D001F5806188455AD00A21A1400A43B0
:1009E0000233404941F823203F4B1A686FEA09035C
:1009F00002EA0301786810F4803F01D049EA02015D
:100A0000394A1160526803EA0201786810F4003F25
:100A100001D049EA0201344A5160926803EA0201B6
:100A2000786810F4801F01D049EA02012E4A9160D3
:100A3000D2681340796811F4001F01D049EA02031B
:100A4000294AD36001350F2D36D80124AC403B68CC
:100A500004EA03094C45F5D17B68122B18BF022B21
:100A60007FF441AF3B690F2B18BF0C2B7FF62AAFE9
:100A70000D2B3FF427AF0E2B3FF424AFD7211648A0
:100A800000F0E2FC1EE7EB21134800F0DDFC47E735
:100A90000921A3E70021A1E701219FE702219DE7AA
:100AA00003219BE7042199E7052197E7062195E7B4
:100AB000072193E7082191E702B0BDE8F08700BF66
:100AC000000402400000024000140240001C0240EA
:100AD00000240240002802404C4E00080000111083
:100AE0000038024000380140003C014070B5064625
:100AF00015460C4651B1012D04D94FF4D771074862
:100B000000F0A2FC45B92404B46170BD40F2AD11FF
:100B1000024800F099FCEEE7B46170BD4C4E00084D
:100B200038B505460C4619B16B695C406C6138BD3F
:100B300040F2C311014800F087FCF5E74C4E000875
:100B400010B582B01B4B1A6C42F080521A641B6CB9
:100B500003F080530193019B174A136843F48033D9
:100B6000136003F046FB0446134B5B6813F4803FAD
:100B700008D103F03EFB001BB0F57A7FF4D90320C7
:100B800002B010BD0C4A136843F40033136003F045
:100B900030FB0446084B5B6813F4003F07D103F0B9
:100BA00028FB001BB0F57A7FF4D90320E8E700208A
:100BB000E6E700BF003802400070004030B583B067
:100BC000044603680F2B3ED8236813F0010F4ED064
:100BD0006368002B18BFB3F5803F07D0B3F5A02F93
:100BE00004D04FF48771A64800F02EFCA54B9B68FB
:100BF00003F00C03042B31D0A24B9B6803F00C03D1
:100C0000082B26D06368B3F5803F62D0002B66D1F5
:100C10009C4B1A6822F480321A601A6822F48022EF
:100C20001A606368002B71D003F0E3FA0546954B18
:100C30001B6813F4003F1AD103F0DBFA401B642851
:100C4000F5D9032025E24FF484718D4800F0FCFBB8
:100C5000BAE78C4B5B6813F4800FD3D0894B1B68C9
:100C600013F4003F03D06368002B00F00F82236869
:100C700013F0020F7CD0E368012B04D94FF4A0716C
:100C80007F4800F0E1FB23691F2B4ED87D4B9B680A
:100C900013F00C0F54D07B4B9B6803F00C03082B14
:100CA00049D0E368002B00F09580764A136843F042
:100CB0000103136003F09DFA0546724B1B6813F0A5
:100CC000020F78D103F095FA401B0228F5D90320D2
:100CD000DFE16C4A136843F480331360A1E7B3F596
:100CE000A02F09D0674B1A6822F480321A601A6864
:100CF00022F480221A6094E7624B1A6842F4802240
:100D00001A601A6842F480321A608AE703F071FAB6
:100D100005465C4B1B6813F4003FA8D003F069FA4A
:100D2000401B6428F5D90320B3E140F24111544837
:100D300000F08AFBAAE7534B5B6813F4800FB0D135
:100D4000504B1B6813F0020F04D0E368012B01D055
:100D500001209EE14B48036823F0F8032169F82243
:100D600092FAA2F2B2FA82F201FA02F2134303609B
:100D7000236813F0080F55D06369012B04D940F2A2
:100D800081113F4800F060FB6369002B36D03D4A7B
:100D9000536F43F00103536703F02BFA0546394BB9
:100DA0005B6F13F0020F3DD103F023FA401B0228C2
:100DB000F5D903206DE13348036823F0F803216976
:100DC000F82292FAA2F2B2FA82F201FA02F2134384
:100DD0000360CDE72B4A136823F00103136003F08F
:100DE00008FA0546274B1B6813F0020FC0D003F02A
:100DF00000FA401B0228F5D903204AE1214A536F2B
:100E000023F00103536703F0F4F905461D4B5B6FB4
:100E100013F0020F06D003F0ECF9401B0228F5D9BD
:100E2000032036E1236813F0040F7CD0A368052B60
:100E300018BF012B1DD8134B1A6C42F080521A6454
:100E40001B6C03F080530193019B0F4A136843F41A
:100E50008073136003F0CDF905460B4B1B6813F448
:100E6000807F13D103F0C5F9401B6428F5D9032016
:100E70000FE140F2AB11024800F0E6FADBE700BFF9
:100E80007C4E00080038024000700040A368012B2F
:100E90001CD00BBB814B1A6F22F001021A671A6F2C
:100EA00022F004021A67A36863B303F0A2F90546AF
:100EB0007A4B1B6F13F0020F35D103F09AF9401BE8
:100EC00041F288339842F3D90320E2E0734A136F6A
:100ED00043F001031367E6E7052B09D06F4B1A6F48
:100EE00022F001021A671A6F22F004021A67DAE789
:100EF0006A4B1A6F42F004021A671A6F42F001023D
:100F00001A67D0E703F075F90546644B1B6F13F0C1
:100F1000020F08D003F06DF9401B41F2883398426C
:100F2000F3D90320B5E0A369022B21D8A369002BD4
:100F300000F0AE80594A926802F00C02082A00F0D4
:100F4000AA80022B1AD0554A136823F080731360CD
:100F500003F04FF90446514B1B6813F0007F00F07B
:100F6000938003F046F9001B0228F4D9032090E097
:100F70004FF4F0714A4800F067FAD7E7E369002BB5
:100F800018BFB3F5800F2ED1236A023B3D2B30D81A
:100F9000636A323BB3F5BF7F31D8A36A022B18BF17
:100FA000042B08D0062B06D0082B04D04FF4F67182
:100FB0003B4800F049FAE36A023B0D2B25D8374A3B
:100FC000136823F08073136003F013F90546334B65
:100FD0001B6813F0007F1ED003F00BF9401B0228A2
:100FE000F5D9032055E040F2E9112D4800F02CFA24
:100FF000CAE74FF4F5712A4800F026FAC8E740F234
:10100000EB11274800F020FAC7E740F2ED11244821
:1010100000F01AFAD3E7E369226A1343616A47F6DC
:10102000C07292FAA2F2B2FA82F201FA02F2134309
:10103000A26A5208013A4FF4403191FAA1F1B1FA93
:1010400081F18A401343E16A4FF0706292FAA2F292
:10105000B2FA82F201FA02F21343104A53601368A3
:1010600043F08073136003F0C4F804460B4B1B6815
:1010700013F0007F06D103F0BCF8001B0228F5D95D
:10108000032006E0002004E0002002E0012000E050
:10109000002003B030BD0120FBE700BF0038024054
:1010A0007C4E0008214B9B6803F00C03042B3AD0C4
:1010B000082B01D01E4870471C4B586800F03F00B9
:1010C0005B6813F4800F1ED01A4AB2FBF0F2174B84
:1010D000586847F6C073184093FAA3F3B3FA83F342
:1010E000D84000FB02F0114B5B6803F440334FF42F
:1010F000403292FAA2F2B2FA82F2D34001335B009C
:10110000B0FBF3F070470A4AB2FBF0F2074B5868A5
:1011100047F6C073184093FAA3F3B3FA83F3D840A9
:1011200000FB02F0DFE70348704700BF00380240D1
:101130000024F40040787D0170B504460D46036834
:10114000013B0E2B14D80F2D18D8864B1B6803F0CB
:101150000F039D4218D9834A136823F00F032B43D2
:101160001360136803F00F039D420DD0012070BD82
:101170004FF413717C4800F067F9E4E740F24D2129
:10118000794800F061F9E0E7236813F0020F1ED000
:10119000A368002B18BF802B12D0902B10D0A02B4F
:1011A0000ED0B02B0CD0C02B0AD0D02B08D0E02B07
:1011B00006D0F02B04D04FF419716B4800F044F9BD
:1011C0006A4A936823F0F003A1680B439360236895
:1011D00013F0010F5BD06368022B26D86368012BE4
:1011E00029D0022B2ED0614A126812F0020F00F0B3
:1011F000B6805E498A6822F0030213438B6002F0D6
:10120000F8FF06466368012B23D0022B30D0574BE2
:101210009B6813F00C0F3AD002F0EBFF801B41F2F9
:1012200088339842F3D9032070BD40F26B214E48B9
:1012300000F00AF9D2E74D4A126812F4003FD8D103
:10124000012070BD494A126812F0007FD1D10120FF
:1012500070BD464B9B6803F00C03042B17D002F0C3
:10126000C8FF801B41F288339842F2D9032070BD39
:101270003E4B9B6803F00C03082B08D002F0B9FF2B
:10128000801B41F288339842F2D9032070BD354B60
:101290001B6803F00F039D420CD2324A136823F0FF
:1012A0000F032B431360136803F00F039D4201D01B
:1012B000012070BD236813F0040F1AD0E368002BDF
:1012C00018BFB3F5805F0DD0B3F5A05F0AD0B3F5BA
:1012D000C05F07D0B3F5E05F04D040F2BE212248E2
:1012E00000F0B2F8214A936823F4E053E1680B431D
:1012F0009360236813F0080F1BD02369002B18BFDD
:10130000B3F5805F0DD0B3F5A05F0AD0B3F5C05F31
:1013100007D0B3F5E05F04D040F2C521124800F0D9
:1013200093F8124A936823F46043216943EAC103A6
:101330009360FFF7B7FE0D4B9B6803F0F003F022BC
:1013400092FAA2F2B2FA82F2D340094AD35CD840B0
:10135000084B18600F20FFF78BF9002070BD0120AB
:1013600070BD00BF003C02407C4E000800380240C7
:10137000345000080C000020014B1868704700BF73
:101380000C00002008B5FFF7F7FF074B9B6803F43C
:10139000E0534FF4E05292FAA2F2B2FA82F2D34052
:1013A000024AD35CD84008BD0038024044500008CF
:1013B00008B5FFF7E1FF074B9B6803F460434FF468
:1013C000604292FAA2F2B2FA82F2D340024AD35CAD
:1013D000D84008BD0038024044500008FEE7000035
:1013E00008B5034800F052F80120FFF7F7FF00BFEF
:1013F000AC4E000808B503460C4A12685AB10B4AB5
:101400001068033323F003030344094A934206D8C8
:10141000064A136008BD0749044A1160EFE703F06C
:1014200065F80C2303604FF0FF3008BD7C000020FE
:1014300000FC0720B425002001230360014B0B6052
:10144000704700BF0400002008B50A460146024864
:1014500000F004F8FFF7C4FFC04E00080FB400B559
:1014600083B004AB53F8042B01938021064803F0AA
:1014700077F8002803DD0146034800F047F803B081
:101480005DF804EB04B070478400002010B50446FA
:1014900003F032F80146204600F038F801210248F6
:1014A00000F034F810BD00BF844F00082DE9F04370
:1014B00085B004460F4643560BB10E461EE0042588
:1014C00028462146ABBE0446384605B0BDE8F08349
:1014D00014F9011B04AA1A4402F8101C0133AB4290
:1014E000F6D304AA1344002203F8102CE9464FF067
:1014F000040840464946ABBE8046761B002EE3D02A
:101500003546102E28BF10250023E8E708B5FFF761
:10151000CDFF08BD08B500F093F8024B024A9A606F
:1015200008BD00BF00ED00E000000008F8B504466B
:101530000D4617461E462748FFF790FF21682648AC
:10154000FFF78CFF61682548FFF788FFA1682448F2
:10155000FFF784FFE1682348FFF780FF21692248F5
:10156000FFF77CFF61692148FFF778FFA1692048F8
:10157000FFF774FFE1691F48FFF770FF1E48FFF790
:101580006DFF29461D48FFF769FF1D4CE16A1D48A4
:10159000FFF764FF216B1C48FFF760FFE16B1B48FE
:1015A000FFF75CFF15F0800F0AD115F4004F0CD146
:1015B0001748FFF753FF06991648FFF74FFFF8BD8E
:1015C00039461548FFF74AFFEFE731461348FFF762
:1015D00045FFEDE7EC4E0008FC4E00080C4F0008FC
:1015E0001C4F00082C4F00083C4F00084C4F0008CF
:1015F0005C4F00086C4F00087C4F0008884F0008C3
:1016000000ED00E0984F0008A84F0008B84F000810
:10161000E84F0008F04F0008C84F0008D84F0008F6
:1016200083691A888A4201D0002070470268033A11
:10163000012A03D8023383610120704700207047DC
:101640000B4B1A6842F001021A6000219960186879
:10165000084A02401A60084A5A601A6822F4802236
:101660001A60D9604FF00062044B9A60704700BF67
:1016700000380240FFFFF6FE1030002400ED00E0CD
:10168000224B9B6803F00C03042B14D0082B16D0BC
:101690001BB11F4A1F4B1A6002E01D4A1D4B1A6006
:1016A0001A4B9B68C3F303131B4AD15C194A136896
:1016B000CB4013607047194A164B1A60F0E7134B82
:1016C0005A685B6803F03F0312F4800F13D0134A8B
:1016D000B2FBF3F20D4B5B68C3F3881303FB02F319
:1016E0000A4A5268C2F3014201325200B3FBF2F3DC
:1016F000084A1360D4E7064AB2FBF3F2034B5B6877
:10170000C3F3881303FB02F3EAE700BF003802408B
:101710000024F4000C0000203450000840787D01C3
:101720007047000010B502F0C3FB044602F01EFC37
:10173000074A136801331360064A136801331360C4
:1017400002F02CFC204602F0B7FB02F033FAEAE785
:10175000442000209C1B0020064B1B78012B00D04E
:101760007047054B1B78F92BFAD80133024A1370E6
:10177000F6E700BFA11B0020341E00201F4B1B7882
:10178000012B00D0704710B502F092FB04461C4BB1
:101790001B782BB3013BDBB2194A13701BBB194BEF
:1017A0001B781BBB00F01CFE174B187000EB4000B1
:1017B0008300164AD358164A1360164A1268934299
:1017C00017D0D3F8A0200132C3F8A020124A136822
:1017D0000133136002F0C0F9204602F06DFB10BD2A
:1017E00002F06AFB10BD02F067FB10BD02F064FB63
:1017F00010BD204602F060FB10BD00BFA11B002001
:10180000341E0020901B0020281D0020A41B002057
:10181000181E0020101E0020301E0020174B1B78C1
:1018200013B9174B1B7803B1704710B502F040FB9A
:10183000044600F0D5FD134B187000EB4000830008
:10184000114AD358114A1360114A1268934210D0BA
:10185000D3F8A0200132C3F8A0200E4A1368013348
:10186000136002F074F9204602F026FBBFF36F8F7D
:1018700010BD204602F020FB10BD00BF341E00202A
:10188000901B0020281D0020A41B0020181E0020F3
:10189000101E0020301E002038B5144B1B783BB9B9
:1018A000134B1B78012B07D045F68963038038BDA5
:1018B00046F66253038038BD0E4B1B78F92B03D9D3
:1018C00045F20923038038BD044602F0F1FA0546CB
:1018D00002F04CFB074A13780133137002F05EFBF1
:1018E000284602F0E9FA0023238038BD341E002088
:1018F000A11B0020901B002038B51A4B1B783BB968
:10190000194B1B78012B07D045F68963038038BD3E
:1019100046F66553038038BD144B1B781BB946F659
:101920006453038038BD044602F0C2FA054602F053
:101930001DFB0E4A1378013BDBB213704BB902F06A
:101940002DFB284602F0B8FAFFF768FF002323803A
:1019500038BD02F023FB284602F0AEFA46F6635388
:10196000238038BD341E0020A11B0020901B0020C6
:10197000184B1B78012B03D045F68B63038070470F
:10198000154B1B88042B06D9144B1B783BB145F62D
:101990008A630380704745F68C630380704710B5F7
:1019A000044600F01DFD0E4B18700E4B187000EB36
:1019B000400083000C4AD3580C4A13600C4A136051
:1019C0000122064B1A7002F085F843F69923238012
:1019D00010BD00BF241D0020361E0020A11B0020CA
:1019E000281D0020341D0020A41B0020181E0020EC
:1019F000101E002000B58BB000230D4A1360089024
:101A00000B2207920693059304930A4A12680392E5
:101A1000094A12680292094A126801921F22009232
:101A2000074A0849084801F0C7FA0BB05DF804FB03
:101A3000442000205C500008585000085450000812
:101A400025170008A4500008181F002030B1426874
:101A5000C1F8D02082689268C261704791F83C302A
:101A6000022B05D0072B07D0054BC1F8D0307047AB
:101A7000044BC1F8D0307047034BC1F8D0307047E9
:101A8000CC500008B8500008C0500008054BC1F801
:101A9000D03030B1826812B19268C2617047014A99
:101AA000C2617047CC50000800230360436003818B
:101AB000704710B491F83F4003684BB1028901327E
:101AC00002816BB193F83F20944209D31B6BF8E776
:101AD0000123038100230B634B630160416007E036
:101AE00043B15A6B62B10B635A6B4A63116359631A
:101AF00010BC70470B6343684B6319634160F7E7A1
:101B00000B634A6359630160F2E7836B7BB19A68A8
:101B1000126B6AB1426B72B1016B89B111634A6396
:101B20001A8A013A1A82002303634363836370476E
:101B30009A60DA60F4E7026B002151639A60EFE784
:101B40001163DA60ECE770B5856BAB681B6B4BB16A
:101B500005F108060446FFF7D8FFA5632146304685
:101B6000FFF7A7FF70BD000000231F2B0ED810B495
:101B7000074C5A001A4491006018002202816250FA
:101B8000426001331F2BF3D910BC7047704700BF70
:101B9000A41B002038B5054602F014F80023384A8B
:101BA0001370384A1370384A1370384A1360384A31
:101BB0001360384A1370384A1370384B1A6842B1B0
:101BC000374B1B6803E0013B002142F8041B002B4C
:101BD000F9D10024334B1C60334B1C60334B1C6029
:101BE000334B1C60334B1C60334B1C60334B1C600D
:101BF000334B1C7000F0E8FBFFF7B6FF314B1C6065
:101C0000314B1C80284600F09DF92B8803B138BD6C
:101C1000284600F0A3F92B88002BF8D12B4A14603A
:101C20002B4A14802B4A14602B4A14802B4A1460D0
:101C30002B4A1480284601F045F92B88002BE6D169
:101C40002846FFF7D7FE2B88002BE0D1284601F06D
:101C500001FC2B88002BDAD1284600F015FE2B88DA
:101C6000002BD4D1284601F04BFE2B88002BCED17F
:101C700000F066F9FFF754FD01221A4B1A70C6E70F
:101C8000341E0020A11B0020901B0020101E0020ED
:101C9000181E0020341D0020281D00204C50000874
:101CA00050500008301D0020241E0020941B0020EE
:101CB0002C2000204C20002038200020281E00204E
:101CC000A01B00205420002050200020482100208C
:101CD0005C200020EC1F0020141E00202C1D002082
:101CE000F01F0020241D0020F0B490F83F3003EBDB
:101CF00043018A0011498E588EB110495A00D518F7
:101D0000AC000F193D8901353D8106610025456113
:101D10000C59606113449A008850F0BC70470A4621
:101D20005900CD18AC00151901262E81002505613A
:101D30004561105122445060EFE700BFA41B002012
:101D400070B490F83F2002EB42018B001149CB5850
:101D500093B1104C51008D18AB0023441D890135FF
:101D60001D81002505615B68436118610A44930089
:101D70001C44606070BC70470B4651008D18AC006D
:101D80001D1901262E810025056145611851234446
:101D90005860EFE7A41B002010B5044690F83F0000
:101DA00000F028FB94F83F20054B1B789A4203D0A3
:101DB0002046FFF799FF10BD2046FFF7C1FF10BD79
:101DC000341D002038B505460C4691F83E10023906
:101DD00005293DD8DFE801F003033C3C23232266BC
:101DE000A4F86430049B236515B12046FFF78DFEEF
:101DF00021462846FFF74AFE94F83E30032B0AD0CE
:101E00002046FFF7C9FF002384F83E3084F83D30B8
:101E100084F83C3038BD204601F0EAFBF0E722664A
:101E2000A4F86430049B236515B12046FFF76DFECE
:101E300021462846FFF72AFE94F83E30072B08D0AB
:101E4000042384F83E30002384F83D3084F83C308D
:101E500038BD204601F0CCFBF2E7000070B5044627
:101E600090F83F504069216970B16A002A44960099
:101E7000164B33441A89013A1A81016109B348614A
:101E800000236361236170BD69B1104E6B00581966
:101E90008200324410890138108100224A611D44B9
:101EA000AB00F150ECE7094B6A00511988001E188D
:101EB000002131811950716094F83F0000F0A6FABA
:101EC000DEE7024B33445860DAE700BFA41B002072
:101ED00010B5044631B9022380F83E302046FFF7A2
:101EE000BDFF10BD0A460146034801F003FB032372
:101EF00084F83E30F2E700BF5821002010B50446B8
:101F00000E4B186880F83C10002380F83D301146D5
:101F1000FFF7DEFF64B1094B19688C6304F1080018
:101F2000FFF7C7FD054B19682046FFF78FFD10BD71
:101F3000024B1B6800229A63F4E700BF101E0020CA
:101F4000704700000023034A1360034A1380038094
:101F5000704700BFF41F00205A200020F0B4164B39
:101F60001E684EB1154B1F8857B106F110047D1E37
:101F7000ADB23346002210E045F21E73038019E033
:101F800045F21D73038015E01C6000215960198122
:101F9000D96010331034013292B2AA42F4D3002235
:101FA0001A605A601A81DA60054B1E609F80DA80E1
:101FB0001A810280F0BC704760500008645000082D
:101FC0000C1F002001810023438183810360436053
:101FD00070470000064BC36100234361054B1B683B
:101FE00023B183615861034B186070478361FAE73E
:101FF000CC50000848210020F8B5174B1B781BBBBC
:1020000030B316460D46044601F052FF074601F074
:10201000ADFF124B2360656000252562656284F880
:102020002850E56204F10800FFF73EFD2046FFF767
:10203000D1FF0B4A13880133138001F0AFFF3846FC
:1020400001F03AFF3580F8BD42F6E1631380F8BD38
:1020500045F6C3531380F8BD341E00204D55545827
:102060005C200020436C0B62416470472DE9F04115
:102070006D4C247854B978B1A2B1B2F5004F11D0AB
:1020800045F62563069A1380BDE8F08146F2AE134B
:10209000069A1380BDE8F08145F6C353069A138073
:1020A000BDE8F0810568614CA54205D045F6C453F2
:1020B000069A1380BDE8F0811F4615460E46044679
:1020C00001F0F6FE804601F051FF94F82830BBB9CC
:1020D000574B1B686362012384F828300FB1E36A11
:1020E0003B602146524B1868FFF7BCFF01F056FFDA
:1020F000404601F0E1FE0023069A1380BDE8F0811E
:10210000606A4B4A1268904227D015F4004F42D1C2
:10211000484B1B78002B4CD190F83F3092F83F1081
:102120008B4254D8324604212046FFF7E7FE01F0E7
:1021300035FF404601F0C0FEFFF770FB01F0B8FE2E
:10214000044601F013FF3A4B1A6892F83D30032B16
:1021500065D8DFE803F03F4C5C54FF2B10D001330F
:1021600084F828300FB1E36A3B6001F017FF404666
:1021700001F0A2FE45F28273069A1380BDE8F08159
:1021800001F00CFF404601F097FE45F28473069A79
:102190001380BDE8F08101F001FF404601F08CFEA4
:1021A0000FB100233B6046F2B013069A1380BDE8DE
:1021B000F08101F0F3FE404601F07EFE0FB10023F6
:1021C0003B6046F66353069A1380BDE8F08100F049
:1021D000D7FFA7E70FB1136D3B600023069A13806A
:1021E00001F0DCFE204601F067FEBDE8F0810FB192
:1021F000136D3B6046F2A913069A1380F0E70FB106
:1022000000233B6047F2D923069A1380E8E70FB119
:10221000136D3B6045F6C253069A1380E0E746F61D
:102220002E63069A1380DBE7341E00204D55545868
:10223000101E0020901B0020443001E003F120001C
:1022400003688B42FAD11B6A0360704700F14403B4
:102250001F2000E020331B6843B19A68002AF9D0A0
:1022600092F83F209042F5D91046F3E770470000FE
:10227000514B1B7843B958B171B1B1F5004F0BD038
:1022800045F625631380704746F20E23138070478E
:1022900045F6C353138070472DE9F04F83B00468AF
:1022A000464B9C4205D045F6C453138003B0BDE8AD
:1022B000F08F15460E46044601F0FAFD074601F080
:1022C00055FE626A3E4B1B689A4208D001F066FEDA
:1022D000384601F0F1FD45F281732B80E6E701F00D
:1022E000BDFF8046E06294F82830013BDBB284F801
:1022F0002830CBBB2146324B1868FFF79DFFA368FF
:10230000DBB32F4BD3F800A09AF83FB09AF8409077
:10231000CB4509D05046FFF799FF814528BF81463C
:102320005FFA89F9CB4533D3D4F80890C4F82490E8
:10233000012384F8283021464846FFF793FECDF864
:10234000008000231A4649462046FFF73BFD01F076
:1023500025FE384601F0B0FD16F4004F01D1FFF71D
:102360005DFA00232B80A1E701F018FE384601F04A
:10237000A3FD45F283732B8098E70026666284F8FC
:10238000286001F00BFE384601F096FD2E808DE7A7
:102390005046FFF763FDDFF828A0DAF8003083F835
:1023A0003F90484600F026F8DAF80000FFF7C8FC36
:1023B000044B83F80090B7E7341E00204D55545865
:1023C000101E0020341D0020002303B1704700219F
:1023D000024A42F823100133F7E700BF8C1B0020AC
:1023E00008B5034B186801F06EFDC0B208BD00BF10
:1023F0008C1B0020C0F11F00012303FA00F0024AE9
:1024000013680343136070478C1B0020C0F11F004A
:10241000012303FA00F0034A136823EA0003136060
:10242000704700BF8C1B0020F8B5074601F040FD47
:10243000054601F09BFD0024314B1C80314B1C6094
:10244000314B1C60314B1C60314B1C6001F024FE91
:10245000304B1C8101F0A2FD284601F02DFD01F05A
:1024600027FD054601F082FD2B4B1C6801F096FD0F
:10247000284601F021FD21E001F01AFD064601F099
:1024800075FD0025C4F8C450E567C4F8B850C4F819
:10249000A050A4F89A50A4F89C50C4F8AC50C4F8CA
:1024A000B05001F0DBFEC4F8A800A4F87450D4F8D2
:1024B000CC4001F073FD304601F0FEFC002CDBD176
:1024C00001F0F6FC054601F051FD144B1C6801F0CB
:1024D00065FD284601F0F0FC0CE001F0E9FC054642
:1024E00001F044FD0023A385A46901F057FD2846AF
:1024F00001F0E2FC002CF0D100233B80F8BD00BFCE
:10250000161E0020981B00203C210020201E0020C9
:10251000402000200C1F00201C1E0020EC1F00206B
:102520002DE9F04383B0934B1B78012B14D10DF1AF
:102530000600FFF779FF904B1B68904A1768BB4273
:1025400013D9B3FBF7F7002F40F0DA80A7F1333748
:10255000A7FB0323DF08D3E0884B18680DF10602C0
:102560000021400001F06EF8DDE70027EBE70121D4
:1025700042F21070B2FBF1F203FB00F3B3FBF2F393
:1025800042F21072D21A92B27D4B1A807D4B1B8898
:102590009A4210D97B4B1A800DE00A214FF47A70D1
:1025A000E8E764210846E5E742F210710120E1E71F
:1025B0000022734B1A8001F017FB01F079FC0546ED
:1025C00001F0D4FC704B1C6801F0E8FC284601F0D7
:1025D00073FC00251FE001F06BFC804601F0C6FC97
:1025E000D4F8AC30C4F8B0300023C4F8AC3001F0FB
:1025F000D5FC404601F060FCD4F8B0301D4401F039
:1026000057FC804601F0B2FCD4F8CC4001F0C6FC87
:10261000404601F051FC002CDDD17DB35B4B9D4267
:102620000DD95B4B9D421CD95A4B9D421DD95A4B2B
:102630009D421ED84FF00A084FF47A7302E042F22E
:1026400010780123B5FBF3F501F032FC814601F06F
:102650008DFC4D4B1C6801F0A1FC484601F02CFCA0
:1026600025E04FF47A780A23ECE74FF064084346FC
:10267000E8E74FF0010842F21073E3E701254FF05D
:102680000008E1E70DF1060304F1BC0204F1C0010A
:10269000204600F0FFFA01F00BFC814601F066FCD9
:1026A000D4F8CC4001F07AFC484601F005FCA4B116
:1026B000D4F8B03003FB08F3B3FBF5F39BB242F25E
:1026C0001072934200D91346A4F89A30B4F89C20B3
:1026D0009342D7D9A4F89C30D4E7304B1B78012B18
:1026E0003FD001F0BBFD801B2D4B1B68984201D9E8
:1026F0002B4B18600DF106020021384600F0A2FFB6
:1027000001F0ACFD064601F023FC264B186001F0F9
:10271000CFFB054601F02AFC234C244B1A682260AB
:1027200000221A6001F03AFC284601F0C5FB204B5C
:102730001A6823689A427FF63BAF14498A427FF6B3
:1027400016AF13498A427FF628AF12498A427FF6B4
:1027500028AF11498A423FF627AF4FF47A710A2019
:1027600008E700220D4B1A700DF10600FFF75CFE22
:10277000B7E700BF291D00207C5000086850000802
:102780002C1E0020161E00201C1E00207F1A060092
:10279000FF083D00FF596202FF83D7175820002031
:1027A000981B002040200020482000209C1B002077
:1027B0003020002070B582B004460DF106012B4890
:1027C00000F0C6FABDF8063013B1238002B070BD28
:1027D0000DF106020021022000F034FFBDF80630A2
:1027E0000BB12380F2E701F063FB054601F0BEFB6D
:1027F00000221F4B1A6001F0D1FB284601F05CFB60
:102800001C4B1B681C4A1068834202D9B3FBF0F0D2
:1028100000E0002020B9A0F13330A0FB0330C00855
:102820000DF10602002100F00DFF0DF106010F4829
:1028300000F07EF8BDF806300BB12380C6E701F04A
:1028400037FB064601F092FB00250C4B1D60084B40
:102850001A680B4B1A6001220A4B1A7001F09EFB9A
:10286000304601F029FB2580B0E700BF381E00206C
:102870009C1B00207C50000868500008981B00201A
:1028800030200020291D002000231C4A13601C4A10
:1028900013601C4A13601C4A13701C4A13701C4BB3
:1028A0001A6882B11B4B19681B4B1B6899420ED3E7
:1028B00010B58AB0194B1C781E2C0CD946F62A6329
:1028C00003800AB010BD46F62B630380704746F6BE
:1028D0002C6303807047089003230793002306931B
:1028E0000593049303910E490968029101920094A3
:1028F0000C4A0D490D4800F05FFBE2E79C1B0020ED
:102900004820002030200020291D002058200020D1
:102910006C50000874500008785000086650000899
:102920007050000821250008D050000860200020C9
:10293000444B1B781BB147F255130B80704770B5A1
:102940000D46044601F0B4FA064601F00FFBCCB187
:102950003D4B1B689C4215D001F020FB304601F036
:10296000ABFA01F0A5FA064601F000FB00232B802C
:1029700094F83E30072B5CD8DFE803F00D0D0D0D09
:10298000182B3B4B01F00AFB304601F095FA47F259
:1029900057132B8070BD01F001FB304601F08CFA1B
:1029A00047F253132B80FEF739FF70BD94F898302F
:1029B000013BDBB284F898302BB101F0EFFA3046DE
:1029C00001F07AFAEFE784F83E302046FFF7E4F9A9
:1029D000F3E794F89830013BDBB284F8983013B9F0
:1029E000012384F83E3001F0D9FA304601F064FA50
:1029F000D9E794F89830013BDBB284F8983013B9EA
:102A0000022384F83E3001F0C9FA304601F054FA4E
:102A1000C9E794F89830013BDBB284F8983013B9D9
:102A2000032384F83E3001F0B9FA304601F044FA4D
:102A3000B9E701F0B3FA304601F03EFA46F62D63ED
:102A40002B8070BD341E0020101E00202DE9F8439D
:102A5000504C247844B971B1B1F5004F0BD045F614
:102A600025621A80002503E046F2AE121A80002586
:102A70002846BDE8F8831E4617460C46804601F0FE
:102A800017FA814601F072FA434B1B685D6DD5B1B0
:102A9000013D5D650FB11B6D3B6001F0DFFB3E4BFF
:102AA0001A68136DC01AC2F8B400D2F8B830984250
:102AB00001D9C2F8B80001F071FA484601F0FCF9FA
:102AC00000233380D4E714F4004F0ED1334B1B782E
:102AD000BBB10FB100233B6001F060FA484601F042
:102AE000EBF946F663533380C2E701F057FA4846E4
:102AF00001F0E2F90FB100233B6046F2B0133380DE
:102B0000B6E7424607210020FFF7F8F901F046FA40
:102B1000484601F0D1F9FEF781FE01F0C9F90446FB
:102B200001F024FA1C4B1A6892F83D30012B22D098
:102B30002BB1032B26D046F62E63338012E07FB1F3
:102B4000136D3B6001F08AFB134B1A68136DC01ABA
:102B5000C2F8B400D2F8B830984201D9C2F8B8002F
:102B6000002333800C4B1B685D6D01F017FA204683
:102B700001F0A2F97CE70FB1136D3B6046F2A91397
:102B80003380EFE70FB100233B6047F2D923338056
:102B9000E8E700BF341E0020101E0020901B00201C
:102BA0002DE9F04182B0054616460F4651B1B1F508
:102BB000004F07D045F6256313800024204602B05D
:102BC000BDE8F08101F04AFB044601F071F980464E
:102BD00001F0CCF965B12C650023338095F83E30C7
:102BE000072B4BD8DFE803F007071D1D07071D1D46
:102BF000274B1D68EFE76C6DB4F1FF3F07D0013440
:102C00006C6501F0CBF9404601F056F9D6E701F0CA
:102C1000C5F9404601F050F946F6C553338000240B
:102C2000CCE795F83C30072B0BD06C6DB4F1FF3F2F
:102C30001AD001346C6501F0B1F9404601F03CF95D
:102C4000BCE7009400231A4629461846FFF7BAF855
:102C50006C6D01F0A3F9404601F02EF917F4004F16
:102C6000ACD1FEF7DBFDA9E701F098F9404601F091
:102C700023F946F6C553338000249FE701F08EF90F
:102C8000404601F019F946F62D633380002495E79C
:102C9000101E00202DE9F0411E462B4B1B78CBB9AE
:102CA00004460D461746D1B1F2B101F001F9804654
:102CB00001F05CF9ECB12368F3B1B4F84C3013F0D7
:102CC000010F26D001F06AF9404601F0F5F8636A79
:102CD00000222DE047F259133380BDE8F08146F21F
:102CE000D5233380BDE8F08146F2D5233380BDE89B
:102CF000F081164B1C68DEE701F050F9404601F008
:102D0000DBF800232B603B6047F252133380BDE8B1
:102D1000F08101F043F9404601F0CEF800232B602A
:102D20003B6047F254133380BDE8F0810433013235
:102D300019680029FAD02A60A36C9A1A3A60002315
:102D40003380BDE8F08100BF341E0020101E00203B
:102D500070B50D464D4B1B78CBB904464C4B984291
:102D600019D001F0A5F8064601F000F9BCB1494BB5
:102D70001B689C4223D000232B8094F83E30072B05
:102D800077D8DFE803F0293C48546060606047F280
:102D90005D130B8070BD47F25B130B8070BD3E4B23
:102DA0001B78012B02D13B4B1C68E0E701F0F6F8E1
:102DB000304601F081F845F689632B8070BD374BB2
:102DC0001B78002BD7D001F0E9F8304601F074F8F9
:102DD00046F663532B8070BD042384F83E300123F4
:102DE00084F898302046FFF739F801F0D7F83046DC
:102DF00001F062F8284B1B78012B43D070BD0523EE
:102E000084F83E30012384F8983001F0C7F830464A
:102E100001F052F8EEE7062384F83E30012384F8EF
:102E2000983001F0BBF8304601F046F8E2E707239E
:102E300084F83E30012384F8983001F0AFF8304632
:102E400001F03AF8D6E794F89830FF2B08D0013318
:102E500084F8983001F0A2F8304601F02DF8C9E767
:102E600001F09CF8304601F027F847F260132B8000
:102E700070BD01F093F8304601F01EF846F62D6360
:102E80002B8070BDFEF7CAFCB8E700BF341E0020DF
:102E9000181F0020101E0020A11B0020901B0020E6
:102EA0000023C0F8C830064B1B6833B1C0F8CC30E3
:102EB000C3F8C800024B18607047C0F8CC30F9E77F
:102EC0001C1E00200023044A1360044A1380044A95
:102ED00013600380704700BF1C1E0020361E0020B8
:102EE000301E002038B5044600250560C5604560E9
:102EF000056145618561C56105622D4B8360456251
:102F00008562C56205650566A0F86450294668308B
:102F1000FFF758F8A567E567C4F88450A4F88C500B
:102F2000C4F88850C4F89050C4F89450002D37D09D
:102F300000256565C4F8B450C4F8B850A56484F899
:102F40009850C4F8C050C4F8BC50A4F84C50A565C3
:102F5000E565A4F89A50A4F89C50C4F8A050C4F8B1
:102F6000A45001F07BF9C4F8A800C4F8AC50C4F830
:102F7000C45025636563A56384F83C5084F83D50D4
:102F800084F83E50202384F83F3084F84030656454
:102F9000C4F8C850C4F8CC50064BC4F8D03038BD83
:102FA00005F12003002244F823200135EDB2BDE7EE
:102FB000E4500008CC5000082DE9F04F83B09DF894
:102FC0003060BDF84C70149C5F4D2D78002D75D18C
:102FD000002879D0002A7BD00D9D002D7CD05B4D40
:102FE000D5F800E00F9DAE457AD80F9DAE460E9DF8
:102FF000AE4579D91F2E7BD81F2E7DD09946154618
:103000008A468346FFF76EFF0023238017F0030FE5
:1030100002D017F0020F7FD10D9B0E9A03EB8208AE
:1030200001970F9B009343460D9A4946284600F0AE
:10303000F3FD0D9B834272D8CBF82850CBF82C902F
:10304000CBF808A08BF83F608BF84060CBF800000D
:10305000CBF80C80129BCBF804300D9BCBF82430BE
:103060000F9BCBF84830ABF84C700023002B5AD0A4
:10307000BDF840100BF16800FEF7A4FF584600F0C1
:10308000BBFD00F015FF044600F070FF9BF83F0009
:10309000FFF7B0F95846FEF753FE5846FFF700FF1A
:1030A0002B4A1388013313802A4B1B78012B42D003
:1030B00000F074FF204600F0FFFE02E047F24A13E2
:1030C000238003B0BDE8F08F47F2AD132380F8E70B
:1030D00047F24F132380F4E746F62F632380F0E78F
:1030E00046F630632380ECE746F631632380E8E759
:1030F00046F273232380E4E7174DA8423FF47EAFE6
:1031000046F273232380DCE7002142F8041B0133DD
:103110000F998B42F8D37FE70D9A0023F8E746F624
:103120002C632380CDE703F1200200214BF822100D
:103130000133DBB29AE700F031FF204600F0BCFE1D
:10314000FEF76CFBBDE700BF341E0020785000087E
:10315000361E0020A11B0020181F002000B583B0E0
:10316000054B186800F050FD0DF106020021034BDD
:10317000186800F067FAF7E7101E00207C5000087E
:1031800070B504460D461AE02046FEF767FE84F847
:103190003F502846FFF72EF92F4B1B689C4204D066
:1031A0002046FEF7CDFD002407E02046FEF79CFDFB
:1031B000002402E084F83F500024002C4BD094F807
:1031C0003F6094F83E30072B45D801A252F823F017
:1031D00089310008B5310008F1310008F1310008EB
:1031E000B5310008B5310008F1310008F1310008AF
:1031F00084F83F5094F83C30013B052B29D8DFE898
:1032000003F00328280803032046FEF79CFC002453
:10321000D3E72046FEF797FCA36B5C6AB54212D356
:1032200094F83F309E42C8D12046FFF70FF894F83B
:103230004050854228BF0546EDB294F83F309D428C
:10324000BBD10024B9E794F83F309D42B5D30024A8
:10325000B3E70024B1E770BD101E0020F8B50646A4
:1032600000F0FCFF0746214B1C68002C3CD0A36DEE
:10327000B34204D8F61A0023A365002517E09B1B70
:10328000A365FAE7002384F83E302046FEF784FD6C
:1032900018E0042384F83E3014E000229A80134B97
:1032A000DD8000F0DBFFC01BF8BD9B1BA365A36D99
:1032B000002BF4D10135ADB294F83E30012BE1D0B2
:1032C000052BE6D0A469094B1C60002CE5D0074A09
:1032D0009388013B93800023E361A36D9E42E4D376
:1032E000F61A0023A365E2E70025D8E74C21002069
:1032F0002DE9F041074600F0B1FF80463C4B1C68C9
:10330000002C72D0A36DBB4204D8FF1A0023A36522
:1033100000252DE0DB1BA365FAE7A36B5E6A31E0B5
:103320002046FEF739FD002384F83E303AE00423BE
:1033300084F83E3036E03046FEF788FF96F84010BD
:10334000814228BF0146C9B296F83F3099423AD02F
:103350003046FFF715FF36E000229A80244BDD80CF
:1033600000F07CFFA0EB0800BDE8F081DB1BA3654B
:10337000A36D002BF2D10135ADB294F83C30042B93
:10338000CBD0002600232366A4F8643000F066FF4B
:1033900020652046FEF7B9FB94F83E30032BBFD0E2
:1033A000072BC4D0032384F83D30002384F83C303D
:1033B0004EB196F83F3096F84020934203D094F8EF
:1033C0003F209342B7D0A469094B1C60002CC3D0A6
:1033D000074A9388013B93800023E361A36D9F42DA
:1033E000C4D3FF1A0023A365C2E70025B6E700BFD8
:1033F0005821002030B583B004E000F0CFFD28460E
:1034000000F05AFD0DF10603002211461046FFF7A9
:103410001DFBBDF80630002BF4D100F049FD054638
:1034200000F0A4FD094A1368013313600120FFF77F
:1034300015FF04460120FFF75BFF2044044B1B6887
:103440009842DAD9024B1860D7E700BF3420002039
:103450003C21002000231C4A13601C490B601C4ABD
:1034600013608B80CB809380D3801A4B1A6882B113
:10347000194B1968194B1B6899420ED310B58AB0C5
:10348000174B1C781E2C0CD947F2112303800AB06D
:1034900010BD47F212230380704747F213230380C5
:1034A000704708900B23079300230693059304931A
:1034B00003910C4909680291019200940A4A0B4950
:1034C0000B48FFF779FDE2E7342000204C21002073
:1034D00058210020845000088C50000878500008C3
:1034E0008050000888500008F5330008EC500008B0
:1034F000381D002030B404684CB12346002B2BD07B
:103500009C6DA2420CD9121B1C469B69F6E78A658A
:1035100000238B61CB61086201600123838023E07B
:10352000DC6964B18A65CC618B6108629D6DAA1A01
:103530009A65D961A16183880133838014E08A652B
:10354000CC618B6108629C6DA21A9A65D961016099
:1035500083880133838007E08A65CC618B610862D0
:10356000A16183880133838030BC7047F8B51E4C5D
:103570002468042A0FD0082A18D000221A800123B8
:1035800080F83E30184B1A68A21A0A4401461748C0
:10359000FFF7B0FFF8BD091B4A1E12F1011FECD95D
:1035A0000022826547F27E221A80F8BDC26DA51AFC
:1035B000A94202D26218C265DFE7161B0E44771ECD
:1035C00017F1011F03D81144C1653146D5E7B5FB9A
:1035D000F1F505FB01110A44C2650022826547F23C
:1035E0007E221A80F8BD00BF342000204C2100202C
:1035F00030B4016AC269836982B1936123B1DA612F
:10360000846D9A6D22449A650023C3618A88013AC9
:103610008A8083618365036230BC70476BB100228E
:10362000DA61856D9C6D2C449C650B608B88013B39
:103630008B80826182650262EEE70B608B8083651E
:103640000362E9E7F8B5214B1B785BB9204B1B7887
:1036500063B9082930D8DFE801F00D2F0D2F0E2FA8
:103660002F2F0D0047F275231380F8BD46F66353E4
:103670001380F8BDE0B114460D46064600F018FC74
:10368000074600F073FC23462A463146114800687D
:10369000FFF76CFF23889BB90E4B1868FEF7DEFB23
:1036A00000F07CFC384600F007FCFEF7B7F8F8BDE8
:1036B00047F27E231380F8BD45F625631380F8BDDD
:1036C00000F06CFC384600F0F7FBF8BD341E00201B
:1036D000901B0020101E002070B5BDF81050544CF7
:1036E00024786CB9534C24787CB905F00E04082C6E
:1036F00030D8DFE804F00F2F0F2F132F2F2F0F00DC
:1037000047F27523059A138070BD46F66353059AF8
:10371000138070BD13B90AB901B9B0B135F01E06F6
:103720001DD115F0100F1FD00125002D2DD1B3F59F
:103730007A7F1BD23B2A1ED83B2921D863282BD95C
:1037400047F27823059A138070BD47F27E23059ACD
:10375000138070BD45F62563059A138070BD45F64C
:103760002563059A138070BD0025DEE747F27B23B1
:10377000059A138070BD47F27A23059A138070BDB5
:1037800047F27923059A138070BD42F20F75A94262
:103790001FD8B0F57A7F21D2274D2D68C1EB0111DA
:1037A0008E004FF4616101FB006002444FF4FA7136
:1037B000B1FBF5F10B4403FB05F32049A1FB031317
:1037C0009B0902FB053575B947F27E23059A1380E4
:1037D00070BD47F27923059A138070BD47F27823B4
:1037E000059A138070BD00F063FB064600F0BEFB37
:1037F000059B2246294612480068FFF7B7FE059B45
:103800001B882BB100F0CAFB304600F055FB70BDA1
:103810000B4B1868FEF722FB00F0C0FB304600F0AF
:103820004BFBFDF7FBFF0023059A138070BD00BF23
:10383000341E0020901B00207C500008D34D6210E5
:10384000101E002070B5054600F032FB064600F061
:103850008DFB054B1C6800F0A1FB304600F02CFBF3
:1038600000232B80204670BD34200020104B1B7895
:10387000012B00D0704700B583B000F041FA0DF184
:10388000060200210B48FFF78BF90B4A1368013B36
:10389000136013B103B05DF804FB084B1A68064BC4
:1038A0001A600DF1060200210548FFF779F9F1E7EA
:1038B000A11B0020381D002054210020442100209D
:1038C000381E002000B585B00DF10E03009302AB49
:1038D000002211460248FEF7C9FB05B05DF804FB63
:1038E000FC1F002000B583B00DF106020021034843
:1038F000FEF7BEFC03B05DF804FB00BFFC1F002018
:1039000010B58AB0044600232A4A13602A4A13607D
:103910002A4A13802A4B1B6833B32A4A1268B2FB27
:10392000F3F3294A1360284B1A68284B1A600023C6
:10393000274A1360274A1360224627492748FEF783
:103940005BFB238803BB264B1A68B2B1254B196871
:10395000254B1B68994214D3244B18781E2815D97F
:1039600047F2463323800FE0164B1B68204AA2FB28
:103970000323DB08144A1360D5E747F2473323805B
:1039800002E047F2483323800AB010BD08940B23AD
:10399000079300230693059304930391154909683F
:1039A000029101920090144A14491548FFF704FB54
:1039B000EAE700BF38210020342100204021002008
:1039C000945000087C50000844210020542100201D
:1039D0000C1E0020201E002000510008FC1F0020AB
:1039E00098500008A0500008785000089050000837
:1039F000CDCCCCCC9C500008453A000810510008B2
:103A0000381E00200D4B1B6883420FD042690369AA
:103A1000136103B15A61012380F82630002303614A
:103A20004361074A1388013B138070470369034AC7
:103A30001360002BEFD000225A61ECE73421002004
:103A40004021002070B582B02BE0236AA361A368F7
:103A500013B1E168204698470DF10600FDF74CFFD1
:103A60002C469CB10DF10600FDF716FF2569A369F0
:103A7000013BA361002BEFD1A38C022BE5D02046A4
:103A8000FFF7C0FF032384F82630E0E700F0E6FBF1
:103A9000801B0D4B1B68984201D90B4B1860FFF738
:103AA00021FF0DF106036A4600210846FEF7CEFF0E
:103AB000FFF708FF00F0D2FB0646044A1368013303
:103AC0001360034B1C68CCE7201E00200C1E002056
:103AD0003421002072B64EF62250CEF2000040F2A1
:103AE000FF01C0F200010170002080F3098842F25A
:103AF0006010C2F20000016881F3088800F0D6F877
:103B000041F63450C2F2000041F62851C2F20001E1
:103B10000A78027041F61060C2F2000041F61861A6
:103B2000C2F200010A680260106880F30988EFF3AE
:103B3000148040F0020080F31488BFF36F8FBDE85B
:103B4000F04F0FBCBDE8005006BC62B608471848ED
:103B50004FF080510160704715484FF0805101606F
:103B6000704772B6EFF3098020E9F04F41F6106517
:103B7000C2F2000529680860744600F097F841F623
:103B80003450C2F2000041F62851C2F200010A7816
:103B9000027041F61861C2F200010A682A6044F01E
:103BA000040E1068B0E8F04F80F3098862B67047E1
:103BB00004ED00E008B5024B1B6803B1984708BD4F
:103BC0002C200020054B1A68054B1B6803EB820371
:103BD00023F00703034A1360704700BF50500008EA
:103BE0004C5000086021002008B5024B1B6803B14F
:103BF000984708BD4C20002008B5024B1B6803B154
:103C0000984708BD301D002008B5024B1B6803B162
:103C1000984708BD941B002010B4019C02EB84025D
:103C200022F007024FF0807442F8044C42F8080C6E
:103C30001D4842F80C0C4FF0123042F8100C4FF0B7
:103C4000033042F8140C4FF0023042F8180C42F8DE
:103C50001C3C42F8201C6FF0020342F8243C4FF059
:103C6000113342F8283C4FF0103342F82C3C4FF00F
:103C7000093342F8303C4FF0083342F8343C4FF0FF
:103C8000073342F8383C4FF0063342F83C3C4FF0E3
:103C9000053342F8403C4FF0043342F8443CA2F173
:103CA000440010BC704700BF5D31000810B5114BD7
:103CB0001B6803B1984700F0D1FA0F4B1B680F4AFD
:103CC0001468A34209D0D3F8A820821AC3F8A4200C
:103CD000D3F8AC100A44C3F8AC20C4F8A80000F034
:103CE00027F9054B1B68D3F8C420904201D9C3F8CB
:103CF000C40010BD38200020101E0020181E002017
:103D000008B5024B1B6803B1984708BD281E002068
:103D100010B500F0CDF8044600F028F9FDF71CFDC1
:103D200000F03CF9204600F0C7F8FFF79FFDFDF7D3
:103D300025FD10BD0138084B1860084A136823F0B0
:103D40007F431360064B1A6842F005021A601A6836
:103D500042F002021A60704714E000E020ED00E03B
:103D600010E000E008B5034B1B68B0FBF3F0FFF771
:103D7000E1FF08BD7C50000838B5054600F098F812
:103D8000044600F0F3F8044B1D6000F007F92046EC
:103D900000F092F838BD00BF6421002008B5012072
:103DA000FFF7EAFF08BD00000A60009810440138E0
:103DB00048608A60024A1068C8600B6111607047F1
:103DC0007C21002030B40024234602E041EA032392
:103DD0000134032CFAD910F0030404D10FE0017070
:103DE000013A01340130151C18BF0125032C88BF8E
:103DF0000025002DF3D102E00360043A0430032AC9
:103E0000FAD802E00170013A0130002AFAD130BC40
:103E1000704708B50A460021FFF7D4FF08BD2DE919
:103E2000F04182B005460E461746984600F040F82D
:103E3000044600F09BF8CDF80080089B3A463146D6
:103E40002846FFF7B1FF00F0A9F8204600F034F84B
:103E500042F21072099B1A8002B0BDE8F0810000A6
:103E600000B585B000220C4B1A600DF10E030193D2
:103E7000012300934FF48063084A09490948FFF77A
:103E8000CEFFBDF80E2042F210739A4201D000F02E
:103E900039F805B05DF804FB7C210020802100206A
:103EA000682100202851000872B6704762B670473A
:103EB000EFF3108072B6704780F31088704730BF00
:103EC000704720BF7047B0FA80F0704790FAA0F0BA
:103ED000B0FA80F0704790FAA0F07047034B1B686F
:103EE000984201D9C01A7047002070479C250020D5
:103EF00008B50022024B1A6000F084F908BD00BF2B
:103F000084250020FEE70000014B1860704700BFC9
:103F10008425002010B5FFF7CBFF044B1C68FFF78A
:103F2000CBFF2046FFF7DAFF10BD00BF942500202D
:103F300010B5FFF7EFFF0446FFF7BAFF0022034B6F
:103F40001A60FFF7B9FF204610BD00BF942500207E
:103F500010B5FFF7ADFF044B1C68FFF7ADFF20461F
:103F6000FFF7BCFF10BD00BF8025002008B5084A40
:103F7000138801331380074B1B8823B1054A13882C
:103F80000133138008BD00F069F9034B1860F5E7B1
:103F9000982500208C2500208825002008B50D4A92
:103FA0001388013B9BB2138003B108BD00F056F9A2
:103FB000094B1860094B1B68C01A094B1B689842D3
:103FC00001D9074B1860074B1B689842EDD9054B88
:103FD0001860EAE78C250020902500208825002025
:103FE0009425002080250020F8B50024144B1C8067
:103FF000144B1C80144B1C60144B1C60144B1C6035
:10400000144B1C60144B1C60FFF752FF07462546FB
:1040100055B1114B1C6000230D4A13600D4A13600B
:104020003846FFF749FFF8BD094E00233360FFF71C
:104030009DFFFFF7B3FF33681C440135ADB2E7E7DE
:10404000982500208C250020882500209025002020
:1040500094250020802500209C25002010B5FFF726
:1040600027FF0446FFF782FF10210448FFF7D1FE27
:10407000FFF794FF2046FFF71FFF10BDA02500208B
:1040800008B5FFF7EBFF08BD08B5FFF731FFFFF7F5
:10409000ABFFFFF7F5FF08BD0022014B1A60704728
:1040A0008025002070477047704770477047704701
:1040B0007047000010B5FFF7FBFE0446FFF756FF00
:1040C0000D4A0E4B1A600E4A0E4B1A600E4A0F4BE9
:1040D0001A600F4A0F4B1A600F4A104B1A60104AB1
:1040E000104B1A60104A114B1A60FFF757FF204619
:1040F000FFF7E2FE10BD00BFA54000082C20002005
:10410000A74000084C200020A9400008301D0020D6
:10411000AB400008241E0020AD400008941B002086
:10412000AF40000838200020B1400008281E0020C1
:1041300008B500F057F800F02BF808BD08B50328C3
:104140000FD8DFE800F00205080BFCF7ABFF08BD55
:10415000FDF712F908BDFDF715F908BDFDF728F9BF
:1041600008BD012008BD000008B501220221024857
:10417000FCF7BCFC08BD00BF0004024008B50022EB
:1041800002210248FCF7B2FC08BD00BF0004024057
:1041900000B587B00D4B1A6B42F002021A631B6B1D
:1041A00003F002030093009B022301930123029377
:1041B00003930323049301A90548FCF715FB002092
:1041C000FFF7DCFF07B05DF804FB00BF00380240DA
:1041D0000004024008B502210148FCF7A1FC08BD1B
:1041E0000004024008B50120FFF7A8FFFFF7BAFD61
:1041F00008BD00B583B00DF10600FFF723FB03B047
:104200005DF804FB08B50F4B1B6813F0010F05D0D8
:1042100013F0020F02D00C4A0C4B1A600120FFF77A
:104220008DFF0B4A136843F0807313600022094B23
:104230001A60094A136843F001031360FFF764FE34
:1042400008BD00BFB41F00E055CEACC5B01F00E0F4
:10425000FCED00E0041000E0001000E0014B1868E5
:10426000704700BF041000E010B594B0234B1A6CE7
:1042700042F080521A641B6C03F080530093009B41
:104280001F4B1A6842F440421A601B6803F4404313
:104290000193019B012307934FF4803308934FF45C
:1042A00080030E9319230F934FF4D87310930224B5
:1042B0001194082312930D9407A8FCF77FFCFCF7D8
:1042C0003FFC0F2302930394002304934FF4A05365
:1042D00005934FF480530693062102A8FCF72CFFA8
:1042E000FDF74AF8074BA3FB00308009FCF748FABA
:1042F0000420FCF75BFA14B010BD00BF0038024088
:1043000000700040D34D621010B5BFF34F8FBFF364
:104310006F8F1C4B0021C3F850125A6942F40032CF
:104320005A61BFF34F8FBFF36F8FC3F88410BFF391
:104330004F8FD3F88040C4F34E300FE01A4643F657
:10434000E07303EA401343EA82730E49C1F8603216
:10435000531E002AF2D1431E18B11846C4F3C902F5
:10436000EDE7BFF34F8F4B6943F480334B61BFF3ED
:104370004F8FBFF36F8FFCF791F9FFF775FFFDF7D4
:104380007FF910BD00ED00E02DE9F0418CB0174E33
:104390000DF12E0708970325079500240694059430
:1043A00004944FF48078CDF80C80114B5A6E029231
:1043B0000193009523460F4A31460F48FEF7FCFD56
:1043C00008970795069405940494CDF80C800B4B40
:1043D0005A6E0292019300952346094A31460948D4
:1043E000FEF7EAFD0CB0BDE8F08100BF30510008D7
:1043F000040100205F44000804050020D8050020C7
:104400003F440008D809002000B585B0FFF790FEB2
:104410000DF10E00FEF7CEF9FFF78AFDFFF7B4FFAE
:104420000DF10E0301930024009464230122214620
:104430002046FFF751F92046FFF7CCFEF0E700B524
:1044400085B00020FFF790FE0DF10E0301930020D0
:104450000090642301220146FFF73EF9F1E700B521
:1044600085B00020FFF78AFE0DF10E0301930020B6
:104470000090642302220146FFF72EF9F1E70000C5
:1044800000B58DB0FCF70AF9FFF7FEFDFFF7E8FC79
:10449000FFF784FCFFF708FD0DF12E042046FDF721
:1044A00079FBFFF707FE0894032307930023069385
:1044B000059304934FF480720392074A516E029160
:1044C000019202220092054A05490648FEF774FD52
:1044D0002046FDF74DFAFEE7AC0A0020094400082B
:1044E00048510008AC0E002070470000014B1868CE
:1044F000704700BF10000020034613F8012B002A6C
:10450000FBD1181A0138704730B5141E05469BB010
:10451000184605DA8B232B604FF0FF301BB030BDFF
:104520004FF40273ADF80C3014BF04F1FF3323468F
:10453000029305934FF6FF7300910491ADF80E308E
:1045400002461E9B6946284600F074F8431CBCBF17
:104550008B232B60002CE1D0009B00221A70DDE73A
:1045600007B5009313460A46014603480068FFF763
:10457000CBFF03B05DF804FB100000202DE9F047ED
:104580008E689E4282460C469146984635D88A8966
:1045900012F4906F31D0256809696F1A656902239A
:1045A00005EB450595FBF3F508F101033B449D42FE
:1045B00038BF1D46530531D5294600F08DFB064610
:1045C00050B90C23CAF80030A38943F04003A381FB
:1045D0004FF0FF30BDE8F0873A46216900F008FB54
:1045E000A38923F4906343F08003A381266165616E
:1045F0003E44ED1B2660A5604646464528BF46461C
:1046000032464946206800F0FEFAA3689B1BA3606F
:1046100023681E4426600020BDE8F0872A4600F08B
:10462000B9FB06460028E1D12169504600F006FB9F
:10463000C7E700002DE9F04F9DB0804603938B89BA
:104640001C060D4616460FD50B696BB9402100F0CC
:1046500043FB2860286128B90C23C8F800304FF0CC
:10466000FF30C5E040236B610023099320238DF8C0
:10467000293030238DF82A304FF0010B37463C4665
:1046800014F8013B002B3CD1B7EB060A0BD0534684
:10469000324629464046FFF771FF013000F0A38003
:1046A000099B534409933B78002B00F09C80002326
:1046B0004FF0FF3204930793059206938DF8533021
:1046C0001A9305222178504800F042FA671C049B97
:1046D000D8B9D90644BF20228DF853201A0744BF09
:1046E0002B228DF8532022782A2A16D0079A0021EF
:1046F0000A20274601343B78303B092B51D9C9B1F8
:1047000011E0252BC0D02746B9E73F4A801A0BFAA3
:1047100000F0184304903C46D3E7039A111D126839
:104720000391002A01DB079204E0524243F00203A6
:10473000079204933B782E2B0ED17B782A2B07F11E
:10474000010132D1039B1A1D1B680392002BB8BFD5
:104750004FF0FF33023705932C4C39780322204663
:1047600000F0F6F938B14023001B03FA00F0049B77
:10477000034304930137397825488DF82810062221
:104780007E1C00F0E5F9002835D0224BFBB9039BD5
:10479000073323F0070308330393099B4B44099322
:1047A0006CE700FB02320121A3E7002305931846C2
:1047B0000A240F4601313A78303A092A03D9002BEE
:1047C000CAD00590C8E704FB00200123F1E703AB42
:1047D00000932A46104B04A94046AFF30080B0F185
:1047E000FF3F8146D9D1AB895B063FF538AF0998C9
:1047F0001DB0BDE8F08F03AB00932A46064B04A919
:10480000404600F081F8EAE7585100085E51000880
:1048100062510008000000007D4500082DE9F047C6
:1048200091461F468A680B69DDF820809342B8BF25
:104830001346C9F8003091F8432006460C4612B1E1
:104840000133C9F800302368990642BFD9F8003017
:104850000233C9F80030256815F0060507D104F1C8
:10486000190AE368D9F800209B1A9D4229DB94F8C5
:1048700043302268003318BF012392062ED404F17E
:10488000430239463046C047013021D02368E568ED
:10489000D9F8002003F00603042B08BFAD1AA36863
:1048A00022690CBF25EAE57500259342C4BF9B1A17
:1048B000ED184FF000091A344D451BD10020BDE81A
:1048C000F0870123524639463046C047013003D1B4
:1048D0004FF0FF30BDE8F0870135C2E7E1185A1C00
:1048E000302081F84300224494F8451082F84310A8
:1048F0000233C4E70123224639463046C04701301F
:10490000E6D009F10109D7E72DE9F04317460A7E01
:1049100085B06E2A984606460C460C9B01F1430E64
:1049200000F0BC801AD8632A2ED00AD8002A00F0E2
:10493000C880582A00F08A8004F1420584F8422099
:104940002AE0642A01D0692AF6D121681A6811F098
:10495000800F23D0111D1960136827E0732A00F01F
:10496000B48008D86F2A2AD0702AE5D10A6842F0AC
:1049700020020A6003E0752A21D0782ADCD178224F
:1049800084F845206E4964E01A6801F14205111D62
:104990001960136884F842300123A3E011F0400F3E
:1049A00002F104011960D7D0B2F90030002B03DA0C
:1049B0002D225B4284F8432062490A2217E02068D6
:1049C000196810F0800F03D0081D18600B6806E00E
:1049D00010F0400F01F104001860F7D00B8859491E
:1049E0006F2A14BF0A220822002084F84300656859
:1049F000A560002DC0F29C80206820F0040020609B
:104A0000002B3FD1002D40F095807546082A0BD130
:104A10002368DA0708D5236962689A42DEBF30232B
:104A200005F8013C05F1FF35AEEB05032361CDF838
:104A300000803B4603AA21463046FFF7EFFE0130D7
:104A400055D14FF0FF3005B0BDE8F08381F8452027
:104A50003C492268186812F0800F00F104051D60BF
:104A600001D0036802E05506FBD50388D00744BF98
:104A700042F0200222601BB9226822F0200222604C
:104A80001022B1E77546B3FBF2F002FB1033CB5CAA
:104A900005F8013D03460028F5D1B7E708681A6814
:104AA000496910F0800F04D0101D18601368196058
:104AB00007E010F0400F02F1040018601368F6D010
:104AC0001980002323617546B1E71A68111D19602A
:104AD000156862680021284600F03AF808B1401BCA
:104AE000606063682361002384F843309FE7236993
:104AF0002A4639463046C0470130A2D023689B077A
:104B000007D5002504F11909E368039A9B1A9D4211
:104B100005DBE068039B9842B8BF184693E7012382
:104B20004A4639463046C04701308AD00135EBE766
:104B3000002BA7D10B7884F8423004F1420565E7D9
:104B40007A510008695100080000000000000000D0
:104B500001F0FF01102A2BDB10F0070F08D010F82E
:104B6000013B013A8B422DD010F0070F42B3F6D132
:104B7000F0B441EA012141EA014122F007047FF04B
:104B800000070023F0E80256083C85EA010586EAA2
:104B9000010685FA47F5A3FA87F586FA47F6A5FADE
:104BA00087F68EB9EED1F0BC01F0FF0102F00702EA
:104BB00032B110F8013B013A83EA010313B1F8D195
:104BC0000020704701387047002D06BF3546033876
:104BD000073815F0010F07D1013015F4807F02BFAF
:104BE000013015F4C03F0130F0BC0138704700BF00
:104BF00010B5431E0A44914200D110BD11F8014B7B
:104C000003F8014FF7E7884210B501EB020303D820
:104C1000421E99420CD110BD9842F9D28118D21A85
:104C2000D34200D110BD13F8014D01F8014DF7E753
:104C300011F8014B02F8014FEBE7000038B50546CB
:104C4000002945D051F8043C0C1F002BB8BFE418D4
:104C500000F0D6F81F4A1368104633B96360146039
:104C60002846BDE8384000F0CCB8A3420CD92168F2
:104C70006218934204BF1A685B68636004BF5218ED
:104C800022600460ECE713465A680AB1A242FAD9DE
:104C900019685818A0420BD1206801445818824264
:104CA0001960DDD1106852685A6001441960D7E775
:104CB00002D90C232B60D3E7206821188A4204BF55
:104CC00011685268626004BF091821605C60C7E720
:104CD00038BD00BF800F002070B5CD1C25F0030546
:104CE00008350C2D38BF0C25002D064601DBA942E6
:104CF00003D90C233360002070BD00F081F8234AF3
:104D00001468214691B9224C23681BB9304600F043
:104D100067F820602946304600F062F8431C26D12F
:104D20000C233360304600F06CF8E4E70B685B1B43
:104D30001AD40B2B0FD90B60CD50CC18304600F095
:104D400060F804F10B00231D20F00700C31A1BD0EC
:104D50005A42E25070BD8C420DBF63684B6863607D
:104D6000136018BF0C46E9E70C464968CAE7C41C43
:104D700024F00304A04205D0211A304600F030F898
:104D80000130CDD02560D9E770BD00BF800F002075
:104D9000840F0020F8B5074614460E4621B9114687
:104DA000BDE8F840FFF798BF22B9FFF747FF254657
:104DB0002846F8BD00F026F884420FD9214638462F
:104DC000FFF78AFF05460028F2D031462246FFF75A
:104DD0000FFF31463846FFF731FFE9E73546E7E791
:104DE00038B5064C0023054608462360FCF702FB55
:104DF000431C02D1236803B12B6038BD880F00200B
:104E00007047704751F8040C0028A0F10400BCBFA3
:104E10000B58C018704700002E2E2F7379737465DD
:104E20006D2F7372632F73746D333266372D686123
:104E30006C2F73746D3332663778785F68616C5F9E
:104E4000636F727465782E63000000002E2E2F733E
:104E5000797374656D2F7372632F73746D3332665B
:104E6000372D68616C2F73746D3332663778785FD5
:104E700068616C5F6770696F2E6300002E2E2F7360
:104E8000797374656D2F7372632F73746D3332662B
:104E9000372D68616C2F73746D3332663778785FA5
:104EA00068616C5F7263632E6300000061626F7201
:104EB0007428292C2065786974696E672E2E2E005F
:104EC0006173736572745F706172616D2829206609
:104ED00061696C65643A2066696C652022257322DD
:104EE0002C206C696E652025640A00005374616390
:104EF0006B206672616D653A0A0000002052302016
:104F00003D2020253038580A000000002052312072
:104F10003D2020253038580A000000002052322061
:104F20003D2020253038580A000000002052332050
:104F30003D2020253038580A000000002052313230
:104F4000203D20253038580A00000000204C522017
:104F50003D2020253038580A000000002050432012
:104F60003D2020253038580A0000000020505352C0
:104F7000203D20253038580A000000004653522FAB
:104F80004641523A0A0000002043465352203D2039
:104F900020253038580A00002048465352203D2032
:104FA00020253038580A00002044465352203D2026
:104FB00020253038580A00002041465352203D2019
:104FC00020253038580A0000204D4D464152203DE2
:104FD00020253038580A00002042464152203D200A
:104FE00020253038580A00004D6973630A0000001C
:104FF000204C522F4558435F52455455524E3D2048
:10500000253038580A0000005B48617264466175BB
:105010006C745D0A000000005B4275734661756C3C
:10502000745D0A005B55736167654661756C745DFC
:105030000A0000000000000000000000010203045C
:105040000607080900000000010203048C15002077
:10505000800000008C1900200C000000800000007F
:105060008C11002020001E000A0000008C0F002080
:105070000C0000008000000040000000E803000079
:10508000010000008C1700200C00000080000000D0
:105090001D0000000A0000008C1300200C0000001E
:1050A0008000000075432F4F532D49494920496422
:1050B0006C65205461736B005461736B2051000068
:1050C0005461736B2053656D0000000020000000E8
:1050D00075432F4F532D494949205374617420540F
:1050E00061736B003F5461736B00000075432F4F79
:1050F000532D494949205469636B205461736B00F7
:105100004F5320546D72204D757465780000000077
:1051100075432F4F532D4949492054696D657220BD
:105120005461736B0000000048656170000000006E
:105130004B65726E656C204F626A656374732054B0
:1051400061736B2030000000417070205461736BFC
:105150002053746172740000232D302B2000686C82
:105160004C0065666745464700303132333435368A
:1051700037383941424344454600303132333435C3
:0B5180003637383961626364656600F1
:10518C007856341280000020000000000024F40047
:10519C0014000020000000000000000000000000CF
:1051AC0000000000000000000000000000000000F3
:1051BC0000000000000000000000000000000000E3
:1051CC0000000000000000000000000000000000D3
:1051DC0000000000000000000000000000000000C3
:1051EC0000000000000000000000000000000000B3
:0851FC00000000003254769817
:04000005080003F1FB
:00000001FF
